C51 COMPILER V9.59.0.0   ADC                                                               06/08/2022 22:53:27 PAGE 1   


C51 COMPILER V9.59.0.0, COMPILATION OF MODULE ADC
OBJECT MODULE PLACED IN .\build\Release\src\adc.o
COMPILER INVOKED BY: D:\keil5.31\C51\BIN\C51.exe .\SRC\ADC.C PRINT(.\build\Release\src\adc.lst) OMF2 TABS(4) CODE NOCOND
                    - SYMBOLS OPTIMIZE(8,SPEED) SMALL ROM(LARGE) INCDIR(D:\keil5.31\C51\INC;.\src) DEFINE(__UVISION_VERSION=526) OBJECT(.\bui
                    -ld\Release\src\adc.o)

line level    source

   1          
   2          
   3          #include "adc.h"
   4          #include "intrins.h"
   5          
   6          /*******************************************************************************
   7           * 函 数 名       : xpt2046_wirte_data
   8           * 函数功能      : XPT2046写数据
   9           * 输    入       : dat：写入的数据
  10           * 输    出      : 无
  11           *******************************************************************************/
  12          void xpt2046_wirte_data(u8 dat)
  13          {
  14   1          u8 i;
  15   1      
  16   1          CLK = 0;
  17   1          _nop_();
  18   1          for (i = 0; i < 8; i++) //循环8次，每次传输一位，共一个字节
  19   1          {
  20   2              DIN = dat >> 7; //先传高位再传低位
  21   2              dat <<= 1;      //将低位移到高位
  22   2              CLK = 0;        // CLK由低到高产生一个上升沿，从而写入数据
  23   2              _nop_();
  24   2              CLK = 1;
  25   2              _nop_();
  26   2          }
  27   1      }
  28          
  29          /*******************************************************************************
  30           * 函 数 名       : xpt2046_read_data
  31           * 函数功能      : XPT2046读数据
  32           * 输    入       : 无
  33           * 输    出      : XPT2046返回12位数据
  34           *******************************************************************************/
  35          u16 xpt2046_read_data(void)
  36          {
  37   1          u8 i;
  38   1          u16 dat = 0;
  39   1      
  40   1          CLK = 0;
  41   1          _nop_();
  42   1          for (i = 0; i < 12; i++) //循环12次，每次读取一位，大于一个字节数，所以返回值类型是u16
  43   1          {
  44   2              dat <<= 1;
  45   2              CLK = 1;
  46   2              _nop_();
  47   2              CLK = 0; // CLK由高到低产生一个下降沿，从而读取数据
  48   2              _nop_();
  49   2              dat |= DOUT; //先读取高位，再读取低位。
  50   2          }
  51   1          return dat;
  52   1      }
  53          
C51 COMPILER V9.59.0.0   ADC                                                               06/08/2022 22:53:27 PAGE 2   

  54          /*******************************************************************************
  55           * 函 数 名       : xpt2046_read_adc_value
  56           * 函数功能      : XPT2046读AD数据
  57           * 输    入       : cmd：指令
  58           * 输    出      : XPT2046返回AD值
  59           *******************************************************************************/
  60          u16 xpt2046_read_adc_value(u8 cmd)
  61          {
  62   1          u8 i;
  63   1          u16 adc_value = 0;
  64   1      
  65   1          CLK = 0;                 //先拉低时钟
  66   1          CS = 0;                  //使能XPT2046
  67   1          xpt2046_wirte_data(cmd); //发送命令字
  68   1          for (i = 6; i > 0; i--)
  69   1              ; //延时等待转换结果
  70   1          CLK = 1;
  71   1          _nop_();
  72   1          CLK = 0; //发送一个时钟，清除BUSY
  73   1          _nop_();
  74   1          adc_value = xpt2046_read_data();
  75   1          CS = 1; //关闭XPT2046
  76   1          return adc_value;
  77   1      }
C51 COMPILER V9.59.0.0   ADC                                                               06/08/2022 22:53:27 PAGE 3   

ASSEMBLY LISTING OF GENERATED OBJECT CODE


             ; FUNCTION _xpt2046_wirte_data (BEGIN)
                                           ; SOURCE LINE # 12
;---- Variable 'dat' assigned to Register 'R7' ----
                                           ; SOURCE LINE # 13
                                           ; SOURCE LINE # 16
0000 C2B6              CLR     CLK
                                           ; SOURCE LINE # 17
0002 00                NOP     
                                           ; SOURCE LINE # 18
;---- Variable 'i' assigned to Register 'R6' ----
0003 E4                CLR     A
0004 FE                MOV     R6,A
0005         ?C0001:
0005 EE                MOV     A,R6
0006 C3                CLR     C
0007 9408              SUBB    A,#08H
0009 7480              MOV     A,#080H
000B 9480              SUBB    A,#080H
000D 5018              JNC     ?C0004
                                           ; SOURCE LINE # 19
                                           ; SOURCE LINE # 20
000F EF                MOV     A,R7
0010 C4                SWAP    A
0011 13                RRC     A
0012 13                RRC     A
0013 13                RRC     A
0014 5401              ANL     A,#01H
0016 24FF              ADD     A,#0FFH
0018 92B4              MOV     DIN,C
                                           ; SOURCE LINE # 21
001A EF                MOV     A,R7
001B 25E0              ADD     A,ACC
001D FF                MOV     R7,A
                                           ; SOURCE LINE # 22
001E C2B6              CLR     CLK
                                           ; SOURCE LINE # 23
0020 00                NOP     
                                           ; SOURCE LINE # 24
0021 D2B6              SETB    CLK
                                           ; SOURCE LINE # 25
0023 00                NOP     
                                           ; SOURCE LINE # 26
0024 0E                INC     R6
0025 80DE              SJMP    ?C0001
                                           ; SOURCE LINE # 27
0027         ?C0004:
0027 22                RET     
             ; FUNCTION _xpt2046_wirte_data (END)

             ; FUNCTION xpt2046_read_data (BEGIN)
                                           ; SOURCE LINE # 35
                                           ; SOURCE LINE # 36
                                           ; SOURCE LINE # 38
;---- Variable 'dat' assigned to Register 'R6/R7' ----
0000 E4                CLR     A
0001 FF                MOV     R7,A
0002 FE                MOV     R6,A
                                           ; SOURCE LINE # 40
0003 C2B6              CLR     CLK
C51 COMPILER V9.59.0.0   ADC                                                               06/08/2022 22:53:27 PAGE 4   

                                           ; SOURCE LINE # 41
0005 00                NOP     
                                           ; SOURCE LINE # 42
;---- Variable 'i' assigned to Register 'R5' ----
0006 FD                MOV     R5,A
0007         ?C0005:
0007 ED                MOV     A,R5
0008 C3                CLR     C
0009 940C              SUBB    A,#0CH
000B 7480              MOV     A,#080H
000D 9480              SUBB    A,#080H
000F 5016              JNC     ?C0006
                                           ; SOURCE LINE # 43
                                           ; SOURCE LINE # 44
0011 EF                MOV     A,R7
0012 25E0              ADD     A,ACC
0014 FF                MOV     R7,A
0015 EE                MOV     A,R6
0016 33                RLC     A
0017 FE                MOV     R6,A
                                           ; SOURCE LINE # 45
0018 D2B6              SETB    CLK
                                           ; SOURCE LINE # 46
001A 00                NOP     
                                           ; SOURCE LINE # 47
001B C2B6              CLR     CLK
                                           ; SOURCE LINE # 48
001D 00                NOP     
                                           ; SOURCE LINE # 49
001E A2B7              MOV     C,DOUT
0020 E4                CLR     A
0021 33                RLC     A
0022 4207              ORL     AR7,A
                                           ; SOURCE LINE # 50
0024 0D                INC     R5
0025 80E0              SJMP    ?C0005
0027         ?C0006:
                                           ; SOURCE LINE # 51
                                           ; SOURCE LINE # 52
0027 22                RET     
             ; FUNCTION xpt2046_read_data (END)

             ; FUNCTION _xpt2046_read_adc_value (BEGIN)
                                           ; SOURCE LINE # 60
;---- Variable 'cmd' assigned to Register 'R7' ----
                                           ; SOURCE LINE # 61
                                           ; SOURCE LINE # 63
;---- Variable 'adc_value' assigned to Register 'R4/R5' ----
0000 E4                CLR     A
0001 FD                MOV     R5,A
0002 FC                MOV     R4,A
                                           ; SOURCE LINE # 65
0003 C2B6              CLR     CLK
                                           ; SOURCE LINE # 66
0005 C2B5              CLR     CS
                                           ; SOURCE LINE # 67
0007 120000      R     LCALL   _xpt2046_wirte_data
                                           ; SOURCE LINE # 68
;---- Variable 'i' assigned to Register 'R7' ----
000A 7F06              MOV     R7,#06H
000C         ?C0009:
000C EF                MOV     A,R7
C51 COMPILER V9.59.0.0   ADC                                                               06/08/2022 22:53:27 PAGE 5   

000D D3                SETB    C
000E 9400              SUBB    A,#00H
0010 7480              MOV     A,#080H
0012 9480              SUBB    A,#080H
0014 4003              JC      ?C0010
0016 1F                DEC     R7
0017 80F3              SJMP    ?C0009
0019         ?C0010:
                                           ; SOURCE LINE # 70
0019 D2B6              SETB    CLK
                                           ; SOURCE LINE # 71
001B 00                NOP     
                                           ; SOURCE LINE # 72
001C C2B6              CLR     CLK
                                           ; SOURCE LINE # 73
001E 00                NOP     
                                           ; SOURCE LINE # 74
001F 120000      R     LCALL   xpt2046_read_data
                                           ; SOURCE LINE # 75
0022 D2B5              SETB    CS
                                           ; SOURCE LINE # 76
                                           ; SOURCE LINE # 77
0024 22                RET     
             ; FUNCTION _xpt2046_read_adc_value (END)

C51 COMPILER V9.59.0.0   ADC                                                               06/08/2022 22:53:27 PAGE 6   

NAME                                    CLASS   MSPACE  TYPE    OFFSET  SIZE
====                                    =====   ======  ====    ======  ====


P0 . . . . . . . . . . . . . . . . . .  SFR      DATA   U_CHAR   0080H  1
P1 . . . . . . . . . . . . . . . . . .  SFR      DATA   U_CHAR   0090H  1
P2 . . . . . . . . . . . . . . . . . .  SFR      DATA   U_CHAR   00A0H  1
P3 . . . . . . . . . . . . . . . . . .  SFR      DATA   U_CHAR   00B0H  1
T0 . . . . . . . . . . . . . . . . . .  ABSBIT   -----  BIT      00B4H  1
AC . . . . . . . . . . . . . . . . . .  ABSBIT   -----  BIT      00D6H  1
T1 . . . . . . . . . . . . . . . . . .  ABSBIT   -----  BIT      00B5H  1
T2 . . . . . . . . . . . . . . . . . .  ABSBIT   -----  BIT      0090H  1
EA . . . . . . . . . . . . . . . . . .  ABSBIT   -----  BIT      00AFH  1
IE . . . . . . . . . . . . . . . . . .  SFR      DATA   U_CHAR   00A8H  1
CS . . . . . . . . . . . . . . . . . .  ABSBIT   -----  BIT      00B5H  1
EXF2 . . . . . . . . . . . . . . . . .  ABSBIT   -----  BIT      00CEH  1
RD . . . . . . . . . . . . . . . . . .  ABSBIT   -----  BIT      00B7H  1
ES . . . . . . . . . . . . . . . . . .  ABSBIT   -----  BIT      00ACH  1
IP . . . . . . . . . . . . . . . . . .  SFR      DATA   U_CHAR   00B8H  1
RI . . . . . . . . . . . . . . . . . .  ABSBIT   -----  BIT      0098H  1
INT0 . . . . . . . . . . . . . . . . .  ABSBIT   -----  BIT      00B2H  1
CY . . . . . . . . . . . . . . . . . .  ABSBIT   -----  BIT      00D7H  1
TI . . . . . . . . . . . . . . . . . .  ABSBIT   -----  BIT      0099H  1
INT1 . . . . . . . . . . . . . . . . .  ABSBIT   -----  BIT      00B3H  1
RCAP2H . . . . . . . . . . . . . . . .  SFR      DATA   U_CHAR   00CBH  1
PS . . . . . . . . . . . . . . . . . .  ABSBIT   -----  BIT      00BCH  1
SP . . . . . . . . . . . . . . . . . .  SFR      DATA   U_CHAR   0081H  1
T2EX . . . . . . . . . . . . . . . . .  ABSBIT   -----  BIT      0091H  1
OV . . . . . . . . . . . . . . . . . .  ABSBIT   -----  BIT      00D2H  1
RCAP2L . . . . . . . . . . . . . . . .  SFR      DATA   U_CHAR   00CAH  1
xpt2046_read_data. . . . . . . . . . .  PUBLIC   CODE   PROC     0000H  -----
  i. . . . . . . . . . . . . . . . . .  * REG *  DATA   U_CHAR   0005H  1
  dat. . . . . . . . . . . . . . . . .  * REG *  DATA   U_INT    0006H  2
C_T2 . . . . . . . . . . . . . . . . .  ABSBIT   -----  BIT      00C9H  1
WR . . . . . . . . . . . . . . . . . .  ABSBIT   -----  BIT      00B6H  1
u8 . . . . . . . . . . . . . . . . . .  TYPEDEF  -----  U_CHAR   -----  1
RCLK . . . . . . . . . . . . . . . . .  ABSBIT   -----  BIT      00CDH  1
TCLK . . . . . . . . . . . . . . . . .  ABSBIT   -----  BIT      00CCH  1
SBUF . . . . . . . . . . . . . . . . .  SFR      DATA   U_CHAR   0099H  1
PCON . . . . . . . . . . . . . . . . .  SFR      DATA   U_CHAR   0087H  1
SCON . . . . . . . . . . . . . . . . .  SFR      DATA   U_CHAR   0098H  1
_xpt2046_read_adc_value. . . . . . . .  PUBLIC   CODE   PROC     0000H  -----
  cmd. . . . . . . . . . . . . . . . .  * REG *  DATA   U_CHAR   0007H  1
  i. . . . . . . . . . . . . . . . . .  * REG *  DATA   U_CHAR   0007H  1
  adc_value. . . . . . . . . . . . . .  * REG *  DATA   U_INT    0004H  2
TMOD . . . . . . . . . . . . . . . . .  SFR      DATA   U_CHAR   0089H  1
TCON . . . . . . . . . . . . . . . . .  SFR      DATA   U_CHAR   0088H  1
_xpt2046_wirte_data. . . . . . . . . .  PUBLIC   CODE   PROC     0000H  -----
  dat. . . . . . . . . . . . . . . . .  * REG *  DATA   U_CHAR   0007H  1
  i. . . . . . . . . . . . . . . . . .  * REG *  DATA   U_CHAR   0006H  1
DOUT . . . . . . . . . . . . . . . . .  ABSBIT   -----  BIT      00B7H  1
IE0. . . . . . . . . . . . . . . . . .  ABSBIT   -----  BIT      0089H  1
IE1. . . . . . . . . . . . . . . . . .  ABSBIT   -----  BIT      008BH  1
B. . . . . . . . . . . . . . . . . . .  SFR      DATA   U_CHAR   00F0H  1
CP_RL2 . . . . . . . . . . . . . . . .  ABSBIT   -----  BIT      00C8H  1
ACC. . . . . . . . . . . . . . . . . .  SFR      DATA   U_CHAR   00E0H  1
ET0. . . . . . . . . . . . . . . . . .  ABSBIT   -----  BIT      00A9H  1
ET1. . . . . . . . . . . . . . . . . .  ABSBIT   -----  BIT      00ABH  1
TF0. . . . . . . . . . . . . . . . . .  ABSBIT   -----  BIT      008DH  1
ET2. . . . . . . . . . . . . . . . . .  ABSBIT   -----  BIT      00ADH  1
TF1. . . . . . . . . . . . . . . . . .  ABSBIT   -----  BIT      008FH  1
C51 COMPILER V9.59.0.0   ADC                                                               06/08/2022 22:53:27 PAGE 7   

NAME                                    CLASS   MSPACE  TYPE    OFFSET  SIZE
====                                    =====   ======  ====    ======  ====


TF2. . . . . . . . . . . . . . . . . .  ABSBIT   -----  BIT      00CFH  1
RB8. . . . . . . . . . . . . . . . . .  ABSBIT   -----  BIT      009AH  1
TH0. . . . . . . . . . . . . . . . . .  SFR      DATA   U_CHAR   008CH  1
EX0. . . . . . . . . . . . . . . . . .  ABSBIT   -----  BIT      00A8H  1
IT0. . . . . . . . . . . . . . . . . .  ABSBIT   -----  BIT      0088H  1
TH1. . . . . . . . . . . . . . . . . .  SFR      DATA   U_CHAR   008DH  1
TB8. . . . . . . . . . . . . . . . . .  ABSBIT   -----  BIT      009BH  1
EX1. . . . . . . . . . . . . . . . . .  ABSBIT   -----  BIT      00AAH  1
IT1. . . . . . . . . . . . . . . . . .  ABSBIT   -----  BIT      008AH  1
TH2. . . . . . . . . . . . . . . . . .  SFR      DATA   U_CHAR   00CDH  1
P. . . . . . . . . . . . . . . . . . .  ABSBIT   -----  BIT      00D0H  1
SM0. . . . . . . . . . . . . . . . . .  ABSBIT   -----  BIT      009FH  1
TL0. . . . . . . . . . . . . . . . . .  SFR      DATA   U_CHAR   008AH  1
SM1. . . . . . . . . . . . . . . . . .  ABSBIT   -----  BIT      009EH  1
TL1. . . . . . . . . . . . . . . . . .  SFR      DATA   U_CHAR   008BH  1
SM2. . . . . . . . . . . . . . . . . .  ABSBIT   -----  BIT      009DH  1
TL2. . . . . . . . . . . . . . . . . .  SFR      DATA   U_CHAR   00CCH  1
PT0. . . . . . . . . . . . . . . . . .  ABSBIT   -----  BIT      00B9H  1
PT1. . . . . . . . . . . . . . . . . .  ABSBIT   -----  BIT      00BBH  1
RS0. . . . . . . . . . . . . . . . . .  ABSBIT   -----  BIT      00D3H  1
PT2. . . . . . . . . . . . . . . . . .  ABSBIT   -----  BIT      00BDH  1
TR0. . . . . . . . . . . . . . . . . .  ABSBIT   -----  BIT      008CH  1
RS1. . . . . . . . . . . . . . . . . .  ABSBIT   -----  BIT      00D4H  1
TR1. . . . . . . . . . . . . . . . . .  ABSBIT   -----  BIT      008EH  1
TR2. . . . . . . . . . . . . . . . . .  ABSBIT   -----  BIT      00CAH  1
PX0. . . . . . . . . . . . . . . . . .  ABSBIT   -----  BIT      00B8H  1
PX1. . . . . . . . . . . . . . . . . .  ABSBIT   -----  BIT      00BAH  1
CLK. . . . . . . . . . . . . . . . . .  ABSBIT   -----  BIT      00B6H  1
DIN. . . . . . . . . . . . . . . . . .  ABSBIT   -----  BIT      00B4H  1
u16. . . . . . . . . . . . . . . . . .  TYPEDEF  -----  U_INT    -----  2
DPH. . . . . . . . . . . . . . . . . .  SFR      DATA   U_CHAR   0083H  1
DPL. . . . . . . . . . . . . . . . . .  SFR      DATA   U_CHAR   0082H  1
EXEN2. . . . . . . . . . . . . . . . .  ABSBIT   -----  BIT      00CBH  1
REN. . . . . . . . . . . . . . . . . .  ABSBIT   -----  BIT      009CH  1
T2CON. . . . . . . . . . . . . . . . .  SFR      DATA   U_CHAR   00C8H  1
RXD. . . . . . . . . . . . . . . . . .  ABSBIT   -----  BIT      00B0H  1
TXD. . . . . . . . . . . . . . . . . .  ABSBIT   -----  BIT      00B1H  1
F0 . . . . . . . . . . . . . . . . . .  ABSBIT   -----  BIT      00D5H  1
PSW. . . . . . . . . . . . . . . . . .  SFR      DATA   U_CHAR   00D0H  1


MODULE INFORMATION:   STATIC OVERLAYABLE
   CODE SIZE        =    117    ----
   CONSTANT SIZE    =   ----    ----
   XDATA SIZE       =   ----    ----
   PDATA SIZE       =   ----    ----
   DATA SIZE        =   ----    ----
   IDATA SIZE       =   ----    ----
   BIT SIZE         =   ----    ----
   EDATA SIZE       =   ----    ----
   HDATA SIZE       =   ----    ----
   XDATA CONST SIZE =   ----    ----
   FAR CONST SIZE   =   ----    ----
END OF MODULE INFORMATION.


C51 COMPILATION COMPLETE.  0 WARNING(S),  0 ERROR(S)
