C51 COMPILER V9.59.0.0   AT24C02                                                           06/08/2022 22:53:27 PAGE 1   


C51 COMPILER V9.59.0.0, COMPILATION OF MODULE AT24C02
OBJECT MODULE PLACED IN .\build\Release\src\at24c02.o
COMPILER INVOKED BY: D:\keil5.31\C51\BIN\C51.exe .\SRC\AT24C02.C PRINT(.\build\Release\src\at24c02.lst) OMF2 TABS(4) COD
                    -E NOCOND SYMBOLS OPTIMIZE(8,SPEED) SMALL ROM(LARGE) INCDIR(D:\keil5.31\C51\INC;.\src) DEFINE(__UVISION_VERSION=526) OBJE
                    -CT(.\build\Release\src\at24c02.o)

line level    source

   1          
   2          
   3          #include "at24c02.h"
   4          
   5          /*******************************************************************************
   6          * 函 数 名         : at24c02_write_one_byte
   7          * 函数功能         : 在AT24CXX指定地址写入一个数据
   8          * 输    入         : addr:写入数据的目的地址 
   9                               dat:要写入的数据
  10          * 输    出         : 无
  11          *******************************************************************************/
  12          void at24c02_write_one_byte(u8 addr,u8 dat)
  13          {                                                                                            
  14   1          iic_start();  
  15   1          iic_write_byte(0XA0);   //发送写命令              
  16   1          iic_wait_ack();    
  17   1          iic_write_byte(addr);   //发送写地址   
  18   1          iic_wait_ack();                                                        
  19   1          iic_write_byte(dat);    //发送字节                                 
  20   1          iic_wait_ack();                    
  21   1          iic_stop();             //产生一个停止条件
  22   1          delay_ms(10);    
  23   1      }
  24          
  25          /*******************************************************************************
  26          * 函 数 名         : at24c02_read_one_byte
  27          * 函数功能         : 在AT24CXX指定地址读出一个数据
  28          * 输    入         : addr:开始读数的地址 
  29          * 输    出         : 读到的数据
  30          *******************************************************************************/
  31          u8 at24c02_read_one_byte(u8 addr)
  32          {                 
  33   1          u8 temp=0;                                                                               
  34   1          iic_start();  
  35   1          iic_write_byte(0XA0);   //发送写命令       
  36   1          iic_wait_ack(); 
  37   1          iic_write_byte(addr);   //发送写地址  
  38   1          iic_wait_ack();     
  39   1          iic_start();           
  40   1          iic_write_byte(0XA1);   //进入接收模式                     
  41   1          iic_wait_ack();  
  42   1          temp=iic_read_byte(0);  //读取字节         
  43   1          iic_stop();             //产生一个停止条件    
  44   1          return temp;            //返回读取的数据
  45   1      }
C51 COMPILER V9.59.0.0   AT24C02                                                           06/08/2022 22:53:27 PAGE 2   

ASSEMBLY LISTING OF GENERATED OBJECT CODE


             ; FUNCTION _at24c02_write_one_byte (BEGIN)
                                           ; SOURCE LINE # 12
0000 8F00        R     MOV     addr,R7
0002 8D00        R     MOV     dat,R5
                                           ; SOURCE LINE # 13
                                           ; SOURCE LINE # 14
0004 120000      E     LCALL   iic_start
                                           ; SOURCE LINE # 15
0007 7FA0              MOV     R7,#0A0H
0009 120000      E     LCALL   _iic_write_byte
                                           ; SOURCE LINE # 16
000C 120000      E     LCALL   iic_wait_ack
                                           ; SOURCE LINE # 17
000F AF00        R     MOV     R7,addr
0011 120000      E     LCALL   _iic_write_byte
                                           ; SOURCE LINE # 18
0014 120000      E     LCALL   iic_wait_ack
                                           ; SOURCE LINE # 19
0017 AF00        R     MOV     R7,dat
0019 120000      E     LCALL   _iic_write_byte
                                           ; SOURCE LINE # 20
001C 120000      E     LCALL   iic_wait_ack
                                           ; SOURCE LINE # 21
001F 120000      E     LCALL   iic_stop
                                           ; SOURCE LINE # 22
0022 7F0A              MOV     R7,#0AH
0024 7E00              MOV     R6,#00H
0026 020000      E     LJMP    _delay_ms
             ; FUNCTION _at24c02_write_one_byte (END)

             ; FUNCTION _at24c02_read_one_byte (BEGIN)
                                           ; SOURCE LINE # 31
0000 8F00        R     MOV     addr,R7
                                           ; SOURCE LINE # 32
                                           ; SOURCE LINE # 33
0002 E4                CLR     A
0003 F500        R     MOV     temp,A
                                           ; SOURCE LINE # 34
0005 120000      E     LCALL   iic_start
                                           ; SOURCE LINE # 35
0008 7FA0              MOV     R7,#0A0H
000A 120000      E     LCALL   _iic_write_byte
                                           ; SOURCE LINE # 36
000D 120000      E     LCALL   iic_wait_ack
                                           ; SOURCE LINE # 37
0010 AF00        R     MOV     R7,addr
0012 120000      E     LCALL   _iic_write_byte
                                           ; SOURCE LINE # 38
0015 120000      E     LCALL   iic_wait_ack
                                           ; SOURCE LINE # 39
0018 120000      E     LCALL   iic_start
                                           ; SOURCE LINE # 40
001B 7FA1              MOV     R7,#0A1H
001D 120000      E     LCALL   _iic_write_byte
                                           ; SOURCE LINE # 41
0020 120000      E     LCALL   iic_wait_ack
                                           ; SOURCE LINE # 42
0023 E4                CLR     A
0024 FF                MOV     R7,A
C51 COMPILER V9.59.0.0   AT24C02                                                           06/08/2022 22:53:27 PAGE 3   

0025 120000      E     LCALL   _iic_read_byte
0028 8F00        R     MOV     temp,R7
                                           ; SOURCE LINE # 43
002A 120000      E     LCALL   iic_stop
                                           ; SOURCE LINE # 44
002D AF00        R     MOV     R7,temp
                                           ; SOURCE LINE # 45
002F 22                RET     
             ; FUNCTION _at24c02_read_one_byte (END)

C51 COMPILER V9.59.0.0   AT24C02                                                           06/08/2022 22:53:27 PAGE 4   

NAME                                    CLASS   MSPACE  TYPE    OFFSET  SIZE
====                                    =====   ======  ====    ======  ====


P0 . . . . . . . . . . . . . . . . . .  SFR      DATA   U_CHAR   0080H  1
P1 . . . . . . . . . . . . . . . . . .  SFR      DATA   U_CHAR   0090H  1
P2 . . . . . . . . . . . . . . . . . .  SFR      DATA   U_CHAR   00A0H  1
P3 . . . . . . . . . . . . . . . . . .  SFR      DATA   U_CHAR   00B0H  1
T0 . . . . . . . . . . . . . . . . . .  ABSBIT   -----  BIT      00B4H  1
AC . . . . . . . . . . . . . . . . . .  ABSBIT   -----  BIT      00D6H  1
T1 . . . . . . . . . . . . . . . . . .  ABSBIT   -----  BIT      00B5H  1
T2 . . . . . . . . . . . . . . . . . .  ABSBIT   -----  BIT      0090H  1
EA . . . . . . . . . . . . . . . . . .  ABSBIT   -----  BIT      00AFH  1
IE . . . . . . . . . . . . . . . . . .  SFR      DATA   U_CHAR   00A8H  1
IIC_SDA. . . . . . . . . . . . . . . .  ABSBIT   -----  BIT      00A0H  1
EXF2 . . . . . . . . . . . . . . . . .  ABSBIT   -----  BIT      00CEH  1
RD . . . . . . . . . . . . . . . . . .  ABSBIT   -----  BIT      00B7H  1
ES . . . . . . . . . . . . . . . . . .  ABSBIT   -----  BIT      00ACH  1
IIC_SCL. . . . . . . . . . . . . . . .  ABSBIT   -----  BIT      00A1H  1
IP . . . . . . . . . . . . . . . . . .  SFR      DATA   U_CHAR   00B8H  1
RI . . . . . . . . . . . . . . . . . .  ABSBIT   -----  BIT      0098H  1
INT0 . . . . . . . . . . . . . . . . .  ABSBIT   -----  BIT      00B2H  1
CY . . . . . . . . . . . . . . . . . .  ABSBIT   -----  BIT      00D7H  1
TI . . . . . . . . . . . . . . . . . .  ABSBIT   -----  BIT      0099H  1
INT1 . . . . . . . . . . . . . . . . .  ABSBIT   -----  BIT      00B3H  1
RCAP2H . . . . . . . . . . . . . . . .  SFR      DATA   U_CHAR   00CBH  1
PS . . . . . . . . . . . . . . . . . .  ABSBIT   -----  BIT      00BCH  1
SP . . . . . . . . . . . . . . . . . .  SFR      DATA   U_CHAR   0081H  1
T2EX . . . . . . . . . . . . . . . . .  ABSBIT   -----  BIT      0091H  1
OV . . . . . . . . . . . . . . . . . .  ABSBIT   -----  BIT      00D2H  1
RCAP2L . . . . . . . . . . . . . . . .  SFR      DATA   U_CHAR   00CAH  1
C_T2 . . . . . . . . . . . . . . . . .  ABSBIT   -----  BIT      00C9H  1
WR . . . . . . . . . . . . . . . . . .  ABSBIT   -----  BIT      00B6H  1
u8 . . . . . . . . . . . . . . . . . .  TYPEDEF  -----  U_CHAR   -----  1
RCLK . . . . . . . . . . . . . . . . .  ABSBIT   -----  BIT      00CDH  1
TCLK . . . . . . . . . . . . . . . . .  ABSBIT   -----  BIT      00CCH  1
SBUF . . . . . . . . . . . . . . . . .  SFR      DATA   U_CHAR   0099H  1
PCON . . . . . . . . . . . . . . . . .  SFR      DATA   U_CHAR   0087H  1
SCON . . . . . . . . . . . . . . . . .  SFR      DATA   U_CHAR   0098H  1
TMOD . . . . . . . . . . . . . . . . .  SFR      DATA   U_CHAR   0089H  1
TCON . . . . . . . . . . . . . . . . .  SFR      DATA   U_CHAR   0088H  1
_at24c02_read_one_byte . . . . . . . .  PUBLIC   CODE   PROC     0000H  -----
  addr . . . . . . . . . . . . . . . .  AUTO     DATA   U_CHAR   0000H  1
  temp . . . . . . . . . . . . . . . .  AUTO     DATA   U_CHAR   0001H  1
IE0. . . . . . . . . . . . . . . . . .  ABSBIT   -----  BIT      0089H  1
IE1. . . . . . . . . . . . . . . . . .  ABSBIT   -----  BIT      008BH  1
B. . . . . . . . . . . . . . . . . . .  SFR      DATA   U_CHAR   00F0H  1
CP_RL2 . . . . . . . . . . . . . . . .  ABSBIT   -----  BIT      00C8H  1
ACC. . . . . . . . . . . . . . . . . .  SFR      DATA   U_CHAR   00E0H  1
iic_start. . . . . . . . . . . . . . .  EXTERN   CODE   PROC     -----  -----
ET0. . . . . . . . . . . . . . . . . .  ABSBIT   -----  BIT      00A9H  1
ET1. . . . . . . . . . . . . . . . . .  ABSBIT   -----  BIT      00ABH  1
TF0. . . . . . . . . . . . . . . . . .  ABSBIT   -----  BIT      008DH  1
ET2. . . . . . . . . . . . . . . . . .  ABSBIT   -----  BIT      00ADH  1
TF1. . . . . . . . . . . . . . . . . .  ABSBIT   -----  BIT      008FH  1
_iic_read_byte . . . . . . . . . . . .  EXTERN   CODE   PROC     -----  -----
TF2. . . . . . . . . . . . . . . . . .  ABSBIT   -----  BIT      00CFH  1
RB8. . . . . . . . . . . . . . . . . .  ABSBIT   -----  BIT      009AH  1
TH0. . . . . . . . . . . . . . . . . .  SFR      DATA   U_CHAR   008CH  1
_at24c02_write_one_byte. . . . . . . .  PUBLIC   CODE   PROC     0000H  -----
  addr . . . . . . . . . . . . . . . .  AUTO     DATA   U_CHAR   0000H  1
C51 COMPILER V9.59.0.0   AT24C02                                                           06/08/2022 22:53:27 PAGE 5   

NAME                                    CLASS   MSPACE  TYPE    OFFSET  SIZE
====                                    =====   ======  ====    ======  ====


  dat. . . . . . . . . . . . . . . . .  AUTO     DATA   U_CHAR   0001H  1
EX0. . . . . . . . . . . . . . . . . .  ABSBIT   -----  BIT      00A8H  1
IT0. . . . . . . . . . . . . . . . . .  ABSBIT   -----  BIT      0088H  1
TH1. . . . . . . . . . . . . . . . . .  SFR      DATA   U_CHAR   008DH  1
TB8. . . . . . . . . . . . . . . . . .  ABSBIT   -----  BIT      009BH  1
EX1. . . . . . . . . . . . . . . . . .  ABSBIT   -----  BIT      00AAH  1
IT1. . . . . . . . . . . . . . . . . .  ABSBIT   -----  BIT      008AH  1
TH2. . . . . . . . . . . . . . . . . .  SFR      DATA   U_CHAR   00CDH  1
P. . . . . . . . . . . . . . . . . . .  ABSBIT   -----  BIT      00D0H  1
SM0. . . . . . . . . . . . . . . . . .  ABSBIT   -----  BIT      009FH  1
TL0. . . . . . . . . . . . . . . . . .  SFR      DATA   U_CHAR   008AH  1
SM1. . . . . . . . . . . . . . . . . .  ABSBIT   -----  BIT      009EH  1
TL1. . . . . . . . . . . . . . . . . .  SFR      DATA   U_CHAR   008BH  1
SM2. . . . . . . . . . . . . . . . . .  ABSBIT   -----  BIT      009DH  1
TL2. . . . . . . . . . . . . . . . . .  SFR      DATA   U_CHAR   00CCH  1
_delay_ms. . . . . . . . . . . . . . .  EXTERN   CODE   PROC     -----  -----
PT0. . . . . . . . . . . . . . . . . .  ABSBIT   -----  BIT      00B9H  1
PT1. . . . . . . . . . . . . . . . . .  ABSBIT   -----  BIT      00BBH  1
RS0. . . . . . . . . . . . . . . . . .  ABSBIT   -----  BIT      00D3H  1
PT2. . . . . . . . . . . . . . . . . .  ABSBIT   -----  BIT      00BDH  1
TR0. . . . . . . . . . . . . . . . . .  ABSBIT   -----  BIT      008CH  1
RS1. . . . . . . . . . . . . . . . . .  ABSBIT   -----  BIT      00D4H  1
TR1. . . . . . . . . . . . . . . . . .  ABSBIT   -----  BIT      008EH  1
TR2. . . . . . . . . . . . . . . . . .  ABSBIT   -----  BIT      00CAH  1
PX0. . . . . . . . . . . . . . . . . .  ABSBIT   -----  BIT      00B8H  1
PX1. . . . . . . . . . . . . . . . . .  ABSBIT   -----  BIT      00BAH  1
_iic_write_byte. . . . . . . . . . . .  EXTERN   CODE   PROC     -----  -----
u16. . . . . . . . . . . . . . . . . .  TYPEDEF  -----  U_INT    -----  2
DPH. . . . . . . . . . . . . . . . . .  SFR      DATA   U_CHAR   0083H  1
iic_wait_ack . . . . . . . . . . . . .  EXTERN   CODE   PROC     -----  -----
iic_stop . . . . . . . . . . . . . . .  EXTERN   CODE   PROC     -----  -----
DPL. . . . . . . . . . . . . . . . . .  SFR      DATA   U_CHAR   0082H  1
EXEN2. . . . . . . . . . . . . . . . .  ABSBIT   -----  BIT      00CBH  1
REN. . . . . . . . . . . . . . . . . .  ABSBIT   -----  BIT      009CH  1
T2CON. . . . . . . . . . . . . . . . .  SFR      DATA   U_CHAR   00C8H  1
RXD. . . . . . . . . . . . . . . . . .  ABSBIT   -----  BIT      00B0H  1
TXD. . . . . . . . . . . . . . . . . .  ABSBIT   -----  BIT      00B1H  1
F0 . . . . . . . . . . . . . . . . . .  ABSBIT   -----  BIT      00D5H  1
PSW. . . . . . . . . . . . . . . . . .  SFR      DATA   U_CHAR   00D0H  1


MODULE INFORMATION:   STATIC OVERLAYABLE
   CODE SIZE        =     89    ----
   CONSTANT SIZE    =   ----    ----
   XDATA SIZE       =   ----    ----
   PDATA SIZE       =   ----    ----
   DATA SIZE        =   ----       4
   IDATA SIZE       =   ----    ----
   BIT SIZE         =   ----    ----
   EDATA SIZE       =   ----    ----
   HDATA SIZE       =   ----    ----
   XDATA CONST SIZE =   ----    ----
   FAR CONST SIZE   =   ----    ----
END OF MODULE INFORMATION.


C51 COMPILATION COMPLETE.  0 WARNING(S),  0 ERROR(S)
