C51 COMPILER V9.59.0.0   IIC                                                               06/08/2022 22:53:27 PAGE 1   


C51 COMPILER V9.59.0.0, COMPILATION OF MODULE IIC
OBJECT MODULE PLACED IN .\build\Release\src\iic.o
COMPILER INVOKED BY: D:\keil5.31\C51\BIN\C51.exe .\SRC\IIC.C PRINT(.\build\Release\src\iic.lst) OMF2 TABS(4) CODE NOCOND
                    - SYMBOLS OPTIMIZE(8,SPEED) SMALL ROM(LARGE) INCDIR(D:\keil5.31\C51\INC;.\src) DEFINE(__UVISION_VERSION=526) OBJECT(.\bui
                    -ld\Release\src\iic.o)

line level    source

   1          
   2          
   3          #include "iic.h"
   4          
   5          
   6          /*******************************************************************************
   7           * 函 数 名       : iic_start
   8           * 函数功能      : 产生IIC起始信号
   9           * 输    入       : 无
  10           * 输    出      : 无
  11           *******************************************************************************/
  12          void iic_start(void)
  13          {
  14   1          IIC_SDA = 1; //如果把该条语句放在SCL后面，第二次读写会出现问题
  15   1          delay_10us(1);
  16   1          IIC_SCL = 1;
  17   1          delay_10us(1);
  18   1          IIC_SDA = 0; //当SCL为高电平时，SDA由高变为低
  19   1          delay_10us(1);
  20   1          IIC_SCL = 0; //钳住I2C总线，准备发送或接收数据
  21   1          delay_10us(1);
  22   1      }
  23          
  24          /*******************************************************************************
  25           * 函 数 名         : iic_stop
  26           * 函数功能        : 产生IIC停止信号
  27           * 输    入         : 无
  28           * 输    出         : 无
  29           *******************************************************************************/
  30          void iic_stop(void)
  31          {
  32   1          IIC_SDA = 0; //如果把该条语句放在SCL后面，第二次读写会出现问题
  33   1          delay_10us(1);
  34   1          IIC_SCL = 1;
  35   1          delay_10us(1);
  36   1          IIC_SDA = 1; //当SCL为高电平时，SDA由低变为高
  37   1          delay_10us(1);
  38   1      }
  39          
  40          /*******************************************************************************
  41           * 函 数 名         : iic_ack
  42           * 函数功能        : 产生ACK应答
  43           * 输    入         : 无
  44           * 输    出         : 无
  45           *******************************************************************************/
  46          void iic_ack(void)
  47          {
  48   1          IIC_SCL = 0;
  49   1          IIC_SDA = 0; // SDA为低电平
  50   1          delay_10us(1);
  51   1          IIC_SCL = 1;
  52   1          delay_10us(1);
  53   1          IIC_SCL = 0;
C51 COMPILER V9.59.0.0   IIC                                                               06/08/2022 22:53:27 PAGE 2   

  54   1      }
  55          
  56          /*******************************************************************************
  57           * 函 数 名         : iic_nack
  58           * 函数功能        : 产生NACK非应答
  59           * 输    入         : 无
  60           * 输    出         : 无
  61           *******************************************************************************/
  62          void iic_nack(void)
  63          {
  64   1          IIC_SCL = 0;
  65   1          IIC_SDA = 1; // SDA为高电平
  66   1          delay_10us(1);
  67   1          IIC_SCL = 1;
  68   1          delay_10us(1);
  69   1          IIC_SCL = 0;
  70   1      }
  71          
  72          /*******************************************************************************
  73          * 函 数 名         : iic_wait_ack
  74          * 函数功能         : 等待应答信号到来
  75          * 输    入         : 无
  76          * 输    出         : 1，接收应答失败
  77                               0，接收应答成功
  78          *******************************************************************************/
  79          u8 iic_wait_ack(void)
  80          {
  81   1          u8 time_temp = 0;
  82   1      
  83   1          IIC_SCL = 1;
  84   1          delay_10us(1);
  85   1          while (IIC_SDA) //等待SDA为低电平
  86   1          {
  87   2              time_temp++;
  88   2              if (time_temp > 100) //超时则强制结束IIC通信
  89   2              {
  90   3                  iic_stop();
  91   3                  return 1;
  92   3              }
  93   2          }
  94   1          IIC_SCL = 0;
  95   1          return 0;
  96   1      }
  97          
  98          /*******************************************************************************
  99           * 函 数 名         : iic_write_byte
 100           * 函数功能        : IIC发送一个字节
 101           * 输    入         : dat：发送一个字节
 102           * 输    出         : 无
 103           *******************************************************************************/
 104          void iic_write_byte(u8 dat)
 105          {
 106   1          u8 i = 0;
 107   1      
 108   1          IIC_SCL = 0;
 109   1          for (i = 0; i < 8; i++) //循环8次将一个字节传出，先传高再传低位
 110   1          {
 111   2              if ((dat & 0x80) > 0)
 112   2                  IIC_SDA = 1;
 113   2              else
 114   2                  IIC_SDA = 0;
 115   2              dat <<= 1;
C51 COMPILER V9.59.0.0   IIC                                                               06/08/2022 22:53:27 PAGE 3   

 116   2              delay_10us(1);
 117   2              IIC_SCL = 1;
 118   2              delay_10us(1);
 119   2              IIC_SCL = 0;
 120   2              delay_10us(1);
 121   2          }
 122   1      }
 123          
 124          /*******************************************************************************
 125           * 函 数 名         : iic_read_byte
 126           * 函数功能        : IIC读一个字节
 127           * 输    入         : ack=1时，发送ACK，ack=0，发送nACK
 128           * 输    出         : 应答或非应答
 129           *******************************************************************************/
 130          u8 iic_read_byte(u8 ack)
 131          {
 132   1          u8 i = 0, receive = 0;
 133   1      
 134   1          for (i = 0; i < 8; i++) //循环8次将一个字节读出，先读高再传低位
 135   1          {
 136   2              IIC_SCL = 0;
 137   2              delay_10us(1);
 138   2              IIC_SCL = 1;
 139   2              receive <<= 1;
 140   2              if (IIC_SDA)
 141   2                  receive++;
 142   2              delay_10us(1);
 143   2          }
 144   1          if (!ack)
 145   1              iic_nack();
 146   1          else
 147   1              iic_ack();
 148   1      
 149   1          return receive;
 150   1      }
C51 COMPILER V9.59.0.0   IIC                                                               06/08/2022 22:53:27 PAGE 4   

ASSEMBLY LISTING OF GENERATED OBJECT CODE


             ; FUNCTION iic_start (BEGIN)
                                           ; SOURCE LINE # 12
                                           ; SOURCE LINE # 13
                                           ; SOURCE LINE # 14
0000 D2A0              SETB    IIC_SDA
                                           ; SOURCE LINE # 15
0002 7F01              MOV     R7,#01H
0004 7E00              MOV     R6,#00H
0006 120000      E     LCALL   _delay_10us
                                           ; SOURCE LINE # 16
0009 D2A1              SETB    IIC_SCL
                                           ; SOURCE LINE # 17
000B 7F01              MOV     R7,#01H
000D 7E00              MOV     R6,#00H
000F 120000      E     LCALL   _delay_10us
                                           ; SOURCE LINE # 18
0012 C2A0              CLR     IIC_SDA
                                           ; SOURCE LINE # 19
0014 7F01              MOV     R7,#01H
0016 7E00              MOV     R6,#00H
0018 120000      E     LCALL   _delay_10us
                                           ; SOURCE LINE # 20
001B C2A1              CLR     IIC_SCL
                                           ; SOURCE LINE # 21
001D 7F01              MOV     R7,#01H
001F 7E00              MOV     R6,#00H
0021 020000      E     LJMP    _delay_10us
             ; FUNCTION iic_start (END)

             ; FUNCTION iic_stop (BEGIN)
                                           ; SOURCE LINE # 30
                                           ; SOURCE LINE # 31
                                           ; SOURCE LINE # 32
0000 C2A0              CLR     IIC_SDA
                                           ; SOURCE LINE # 33
0002 7F01              MOV     R7,#01H
0004 7E00              MOV     R6,#00H
0006 120000      E     LCALL   _delay_10us
                                           ; SOURCE LINE # 34
0009 D2A1              SETB    IIC_SCL
                                           ; SOURCE LINE # 35
000B 7F01              MOV     R7,#01H
000D 7E00              MOV     R6,#00H
000F 120000      E     LCALL   _delay_10us
                                           ; SOURCE LINE # 36
0012 D2A0              SETB    IIC_SDA
                                           ; SOURCE LINE # 37
0014 7F01              MOV     R7,#01H
0016 7E00              MOV     R6,#00H
0018 020000      E     LJMP    _delay_10us
             ; FUNCTION iic_stop (END)

             ; FUNCTION iic_ack (BEGIN)
                                           ; SOURCE LINE # 46
                                           ; SOURCE LINE # 47
                                           ; SOURCE LINE # 48
0000 C2A1              CLR     IIC_SCL
                                           ; SOURCE LINE # 49
0002 C2A0              CLR     IIC_SDA
C51 COMPILER V9.59.0.0   IIC                                                               06/08/2022 22:53:27 PAGE 5   

                                           ; SOURCE LINE # 50
0004 7F01              MOV     R7,#01H
0006 7E00              MOV     R6,#00H
0008 120000      E     LCALL   _delay_10us
                                           ; SOURCE LINE # 51
000B D2A1              SETB    IIC_SCL
                                           ; SOURCE LINE # 52
000D 7F01              MOV     R7,#01H
000F 7E00              MOV     R6,#00H
0011 120000      E     LCALL   _delay_10us
                                           ; SOURCE LINE # 53
0014 C2A1              CLR     IIC_SCL
                                           ; SOURCE LINE # 54
0016 22                RET     
             ; FUNCTION iic_ack (END)

             ; FUNCTION iic_nack (BEGIN)
                                           ; SOURCE LINE # 62
                                           ; SOURCE LINE # 63
                                           ; SOURCE LINE # 64
0000 C2A1              CLR     IIC_SCL
                                           ; SOURCE LINE # 65
0002 D2A0              SETB    IIC_SDA
                                           ; SOURCE LINE # 66
0004 7F01              MOV     R7,#01H
0006 7E00              MOV     R6,#00H
0008 120000      E     LCALL   _delay_10us
                                           ; SOURCE LINE # 67
000B D2A1              SETB    IIC_SCL
                                           ; SOURCE LINE # 68
000D 7F01              MOV     R7,#01H
000F 7E00              MOV     R6,#00H
0011 120000      E     LCALL   _delay_10us
                                           ; SOURCE LINE # 69
0014 C2A1              CLR     IIC_SCL
                                           ; SOURCE LINE # 70
0016 22                RET     
             ; FUNCTION iic_nack (END)

             ; FUNCTION iic_wait_ack (BEGIN)
                                           ; SOURCE LINE # 79
                                           ; SOURCE LINE # 80
                                           ; SOURCE LINE # 81
0000 E4                CLR     A
0001 F500        R     MOV     time_temp,A
                                           ; SOURCE LINE # 83
0003 D2A1              SETB    IIC_SCL
                                           ; SOURCE LINE # 84
0005 7F01              MOV     R7,#01H
0007 FE                MOV     R6,A
0008 120000      E     LCALL   _delay_10us
000B         ?C0005:
                                           ; SOURCE LINE # 85
000B 30A013            JNB     IIC_SDA,?C0006
                                           ; SOURCE LINE # 86
                                           ; SOURCE LINE # 87
000E 0500        R     INC     time_temp
                                           ; SOURCE LINE # 88
0010 D3                SETB    C
0011 E500        R     MOV     A,time_temp
0013 9464              SUBB    A,#064H
0015 7480              MOV     A,#080H
C51 COMPILER V9.59.0.0   IIC                                                               06/08/2022 22:53:27 PAGE 6   

0017 9480              SUBB    A,#080H
0019 40F0              JC      ?C0005
                                           ; SOURCE LINE # 89
                                           ; SOURCE LINE # 90
001B 120000      R     LCALL   iic_stop
                                           ; SOURCE LINE # 91
001E 7F01              MOV     R7,#01H
0020 22                RET     
                                           ; SOURCE LINE # 92
                                           ; SOURCE LINE # 93
0021         ?C0006:
                                           ; SOURCE LINE # 94
0021 C2A1              CLR     IIC_SCL
                                           ; SOURCE LINE # 95
0023 7F00              MOV     R7,#00H
                                           ; SOURCE LINE # 96
0025         ?C0008:
0025 22                RET     
             ; FUNCTION iic_wait_ack (END)

             ; FUNCTION _iic_write_byte (BEGIN)
                                           ; SOURCE LINE # 104
0000 8F00        R     MOV     dat,R7
                                           ; SOURCE LINE # 105
                                           ; SOURCE LINE # 106
0002 E4                CLR     A
0003 F500        R     MOV     i,A
                                           ; SOURCE LINE # 108
0005 C2A1              CLR     IIC_SCL
                                           ; SOURCE LINE # 109
0007 F500        R     MOV     i,A
0009         ?C0009:
0009 C3                CLR     C
000A E500        R     MOV     A,i
000C 9408              SUBB    A,#08H
000E 7480              MOV     A,#080H
0010 9480              SUBB    A,#080H
0012 5035              JNC     ?C0014
                                           ; SOURCE LINE # 110
                                           ; SOURCE LINE # 111
0014 E500        R     MOV     A,dat
0016 5480              ANL     A,#080H
0018 9400              SUBB    A,#00H
001A 7480              MOV     A,#080H
001C 9480              SUBB    A,#080H
001E 4004              JC      ?C0012
                                           ; SOURCE LINE # 112
0020 D2A0              SETB    IIC_SDA
0022 8002              SJMP    ?C0013
0024         ?C0012:
                                           ; SOURCE LINE # 114
0024 C2A0              CLR     IIC_SDA
0026         ?C0013:
                                           ; SOURCE LINE # 115
0026 E500        R     MOV     A,dat
0028 25E0              ADD     A,ACC
002A F500        R     MOV     dat,A
                                           ; SOURCE LINE # 116
002C 7F01              MOV     R7,#01H
002E 7E00              MOV     R6,#00H
0030 120000      E     LCALL   _delay_10us
                                           ; SOURCE LINE # 117
C51 COMPILER V9.59.0.0   IIC                                                               06/08/2022 22:53:27 PAGE 7   

0033 D2A1              SETB    IIC_SCL
                                           ; SOURCE LINE # 118
0035 7F01              MOV     R7,#01H
0037 7E00              MOV     R6,#00H
0039 120000      E     LCALL   _delay_10us
                                           ; SOURCE LINE # 119
003C C2A1              CLR     IIC_SCL
                                           ; SOURCE LINE # 120
003E 7F01              MOV     R7,#01H
0040 7E00              MOV     R6,#00H
0042 120000      E     LCALL   _delay_10us
                                           ; SOURCE LINE # 121
0045 0500        R     INC     i
0047 80C0              SJMP    ?C0009
                                           ; SOURCE LINE # 122
0049         ?C0014:
0049 22                RET     
             ; FUNCTION _iic_write_byte (END)

             ; FUNCTION _iic_read_byte (BEGIN)
                                           ; SOURCE LINE # 130
0000 8F00        R     MOV     ack,R7
                                           ; SOURCE LINE # 131
                                           ; SOURCE LINE # 132
0002 E4                CLR     A
0003 F500        R     MOV     i,A
0005 F500        R     MOV     receive,A
                                           ; SOURCE LINE # 134
0007 F500        R     MOV     i,A
0009         ?C0015:
0009 C3                CLR     C
000A E500        R     MOV     A,i
000C 9408              SUBB    A,#08H
000E 7480              MOV     A,#080H
0010 9480              SUBB    A,#080H
0012 5021              JNC     ?C0016
                                           ; SOURCE LINE # 135
                                           ; SOURCE LINE # 136
0014 C2A1              CLR     IIC_SCL
                                           ; SOURCE LINE # 137
0016 7F01              MOV     R7,#01H
0018 7E00              MOV     R6,#00H
001A 120000      E     LCALL   _delay_10us
                                           ; SOURCE LINE # 138
001D D2A1              SETB    IIC_SCL
                                           ; SOURCE LINE # 139
001F E500        R     MOV     A,receive
0021 25E0              ADD     A,ACC
0023 F500        R     MOV     receive,A
                                           ; SOURCE LINE # 140
0025 30A002            JNB     IIC_SDA,?C0018
                                           ; SOURCE LINE # 141
0028 0500        R     INC     receive
002A         ?C0018:
                                           ; SOURCE LINE # 142
002A 7F01              MOV     R7,#01H
002C 7E00              MOV     R6,#00H
002E 120000      E     LCALL   _delay_10us
                                           ; SOURCE LINE # 143
0031 0500        R     INC     i
0033 80D4              SJMP    ?C0015
0035         ?C0016:
C51 COMPILER V9.59.0.0   IIC                                                               06/08/2022 22:53:27 PAGE 8   

                                           ; SOURCE LINE # 144
0035 E500        R     MOV     A,ack
0037 7005              JNZ     ?C0019
                                           ; SOURCE LINE # 145
0039 120000      R     LCALL   iic_nack
003C 8003              SJMP    ?C0020
003E         ?C0019:
                                           ; SOURCE LINE # 147
003E 120000      R     LCALL   iic_ack
0041         ?C0020:
                                           ; SOURCE LINE # 149
0041 AF00        R     MOV     R7,receive
                                           ; SOURCE LINE # 150
0043 22                RET     
             ; FUNCTION _iic_read_byte (END)

C51 COMPILER V9.59.0.0   IIC                                                               06/08/2022 22:53:27 PAGE 9   

NAME                                    CLASS   MSPACE  TYPE    OFFSET  SIZE
====                                    =====   ======  ====    ======  ====


P0 . . . . . . . . . . . . . . . . . .  SFR      DATA   U_CHAR   0080H  1
P1 . . . . . . . . . . . . . . . . . .  SFR      DATA   U_CHAR   0090H  1
P2 . . . . . . . . . . . . . . . . . .  SFR      DATA   U_CHAR   00A0H  1
P3 . . . . . . . . . . . . . . . . . .  SFR      DATA   U_CHAR   00B0H  1
T0 . . . . . . . . . . . . . . . . . .  ABSBIT   -----  BIT      00B4H  1
AC . . . . . . . . . . . . . . . . . .  ABSBIT   -----  BIT      00D6H  1
T1 . . . . . . . . . . . . . . . . . .  ABSBIT   -----  BIT      00B5H  1
T2 . . . . . . . . . . . . . . . . . .  ABSBIT   -----  BIT      0090H  1
EA . . . . . . . . . . . . . . . . . .  ABSBIT   -----  BIT      00AFH  1
IE . . . . . . . . . . . . . . . . . .  SFR      DATA   U_CHAR   00A8H  1
IIC_SDA. . . . . . . . . . . . . . . .  ABSBIT   -----  BIT      00A0H  1
EXF2 . . . . . . . . . . . . . . . . .  ABSBIT   -----  BIT      00CEH  1
RD . . . . . . . . . . . . . . . . . .  ABSBIT   -----  BIT      00B7H  1
ES . . . . . . . . . . . . . . . . . .  ABSBIT   -----  BIT      00ACH  1
IIC_SCL. . . . . . . . . . . . . . . .  ABSBIT   -----  BIT      00A1H  1
IP . . . . . . . . . . . . . . . . . .  SFR      DATA   U_CHAR   00B8H  1
RI . . . . . . . . . . . . . . . . . .  ABSBIT   -----  BIT      0098H  1
INT0 . . . . . . . . . . . . . . . . .  ABSBIT   -----  BIT      00B2H  1
CY . . . . . . . . . . . . . . . . . .  ABSBIT   -----  BIT      00D7H  1
TI . . . . . . . . . . . . . . . . . .  ABSBIT   -----  BIT      0099H  1
INT1 . . . . . . . . . . . . . . . . .  ABSBIT   -----  BIT      00B3H  1
RCAP2H . . . . . . . . . . . . . . . .  SFR      DATA   U_CHAR   00CBH  1
PS . . . . . . . . . . . . . . . . . .  ABSBIT   -----  BIT      00BCH  1
SP . . . . . . . . . . . . . . . . . .  SFR      DATA   U_CHAR   0081H  1
T2EX . . . . . . . . . . . . . . . . .  ABSBIT   -----  BIT      0091H  1
OV . . . . . . . . . . . . . . . . . .  ABSBIT   -----  BIT      00D2H  1
RCAP2L . . . . . . . . . . . . . . . .  SFR      DATA   U_CHAR   00CAH  1
C_T2 . . . . . . . . . . . . . . . . .  ABSBIT   -----  BIT      00C9H  1
WR . . . . . . . . . . . . . . . . . .  ABSBIT   -----  BIT      00B6H  1
u8 . . . . . . . . . . . . . . . . . .  TYPEDEF  -----  U_CHAR   -----  1
RCLK . . . . . . . . . . . . . . . . .  ABSBIT   -----  BIT      00CDH  1
TCLK . . . . . . . . . . . . . . . . .  ABSBIT   -----  BIT      00CCH  1
SBUF . . . . . . . . . . . . . . . . .  SFR      DATA   U_CHAR   0099H  1
PCON . . . . . . . . . . . . . . . . .  SFR      DATA   U_CHAR   0087H  1
SCON . . . . . . . . . . . . . . . . .  SFR      DATA   U_CHAR   0098H  1
TMOD . . . . . . . . . . . . . . . . .  SFR      DATA   U_CHAR   0089H  1
TCON . . . . . . . . . . . . . . . . .  SFR      DATA   U_CHAR   0088H  1
iic_nack . . . . . . . . . . . . . . .  PUBLIC   CODE   PROC     0000H  -----
_delay_10us. . . . . . . . . . . . . .  EXTERN   CODE   PROC     -----  -----
IE0. . . . . . . . . . . . . . . . . .  ABSBIT   -----  BIT      0089H  1
IE1. . . . . . . . . . . . . . . . . .  ABSBIT   -----  BIT      008BH  1
B. . . . . . . . . . . . . . . . . . .  SFR      DATA   U_CHAR   00F0H  1
CP_RL2 . . . . . . . . . . . . . . . .  ABSBIT   -----  BIT      00C8H  1
iic_ack. . . . . . . . . . . . . . . .  PUBLIC   CODE   PROC     0000H  -----
ACC. . . . . . . . . . . . . . . . . .  SFR      DATA   U_CHAR   00E0H  1
iic_start. . . . . . . . . . . . . . .  PUBLIC   CODE   PROC     0000H  -----
ET0. . . . . . . . . . . . . . . . . .  ABSBIT   -----  BIT      00A9H  1
ET1. . . . . . . . . . . . . . . . . .  ABSBIT   -----  BIT      00ABH  1
TF0. . . . . . . . . . . . . . . . . .  ABSBIT   -----  BIT      008DH  1
ET2. . . . . . . . . . . . . . . . . .  ABSBIT   -----  BIT      00ADH  1
TF1. . . . . . . . . . . . . . . . . .  ABSBIT   -----  BIT      008FH  1
_iic_read_byte . . . . . . . . . . . .  PUBLIC   CODE   PROC     0000H  -----
  ack. . . . . . . . . . . . . . . . .  AUTO     DATA   U_CHAR   0000H  1
  i. . . . . . . . . . . . . . . . . .  AUTO     DATA   U_CHAR   0001H  1
  receive. . . . . . . . . . . . . . .  AUTO     DATA   U_CHAR   0002H  1
TF2. . . . . . . . . . . . . . . . . .  ABSBIT   -----  BIT      00CFH  1
RB8. . . . . . . . . . . . . . . . . .  ABSBIT   -----  BIT      009AH  1
C51 COMPILER V9.59.0.0   IIC                                                               06/08/2022 22:53:27 PAGE 10  

NAME                                    CLASS   MSPACE  TYPE    OFFSET  SIZE
====                                    =====   ======  ====    ======  ====


TH0. . . . . . . . . . . . . . . . . .  SFR      DATA   U_CHAR   008CH  1
EX0. . . . . . . . . . . . . . . . . .  ABSBIT   -----  BIT      00A8H  1
IT0. . . . . . . . . . . . . . . . . .  ABSBIT   -----  BIT      0088H  1
TH1. . . . . . . . . . . . . . . . . .  SFR      DATA   U_CHAR   008DH  1
TB8. . . . . . . . . . . . . . . . . .  ABSBIT   -----  BIT      009BH  1
EX1. . . . . . . . . . . . . . . . . .  ABSBIT   -----  BIT      00AAH  1
IT1. . . . . . . . . . . . . . . . . .  ABSBIT   -----  BIT      008AH  1
TH2. . . . . . . . . . . . . . . . . .  SFR      DATA   U_CHAR   00CDH  1
P. . . . . . . . . . . . . . . . . . .  ABSBIT   -----  BIT      00D0H  1
SM0. . . . . . . . . . . . . . . . . .  ABSBIT   -----  BIT      009FH  1
TL0. . . . . . . . . . . . . . . . . .  SFR      DATA   U_CHAR   008AH  1
SM1. . . . . . . . . . . . . . . . . .  ABSBIT   -----  BIT      009EH  1
TL1. . . . . . . . . . . . . . . . . .  SFR      DATA   U_CHAR   008BH  1
SM2. . . . . . . . . . . . . . . . . .  ABSBIT   -----  BIT      009DH  1
TL2. . . . . . . . . . . . . . . . . .  SFR      DATA   U_CHAR   00CCH  1
PT0. . . . . . . . . . . . . . . . . .  ABSBIT   -----  BIT      00B9H  1
PT1. . . . . . . . . . . . . . . . . .  ABSBIT   -----  BIT      00BBH  1
RS0. . . . . . . . . . . . . . . . . .  ABSBIT   -----  BIT      00D3H  1
PT2. . . . . . . . . . . . . . . . . .  ABSBIT   -----  BIT      00BDH  1
TR0. . . . . . . . . . . . . . . . . .  ABSBIT   -----  BIT      008CH  1
RS1. . . . . . . . . . . . . . . . . .  ABSBIT   -----  BIT      00D4H  1
TR1. . . . . . . . . . . . . . . . . .  ABSBIT   -----  BIT      008EH  1
TR2. . . . . . . . . . . . . . . . . .  ABSBIT   -----  BIT      00CAH  1
PX0. . . . . . . . . . . . . . . . . .  ABSBIT   -----  BIT      00B8H  1
PX1. . . . . . . . . . . . . . . . . .  ABSBIT   -----  BIT      00BAH  1
_iic_write_byte. . . . . . . . . . . .  PUBLIC   CODE   PROC     0000H  -----
  dat. . . . . . . . . . . . . . . . .  AUTO     DATA   U_CHAR   0000H  1
  i. . . . . . . . . . . . . . . . . .  AUTO     DATA   U_CHAR   0001H  1
u16. . . . . . . . . . . . . . . . . .  TYPEDEF  -----  U_INT    -----  2
DPH. . . . . . . . . . . . . . . . . .  SFR      DATA   U_CHAR   0083H  1
iic_wait_ack . . . . . . . . . . . . .  PUBLIC   CODE   PROC     0000H  -----
  time_temp. . . . . . . . . . . . . .  AUTO     DATA   U_CHAR   0000H  1
iic_stop . . . . . . . . . . . . . . .  PUBLIC   CODE   PROC     0000H  -----
DPL. . . . . . . . . . . . . . . . . .  SFR      DATA   U_CHAR   0082H  1
EXEN2. . . . . . . . . . . . . . . . .  ABSBIT   -----  BIT      00CBH  1
REN. . . . . . . . . . . . . . . . . .  ABSBIT   -----  BIT      009CH  1
T2CON. . . . . . . . . . . . . . . . .  SFR      DATA   U_CHAR   00C8H  1
RXD. . . . . . . . . . . . . . . . . .  ABSBIT   -----  BIT      00B0H  1
TXD. . . . . . . . . . . . . . . . . .  ABSBIT   -----  BIT      00B1H  1
F0 . . . . . . . . . . . . . . . . . .  ABSBIT   -----  BIT      00D5H  1
PSW. . . . . . . . . . . . . . . . . .  SFR      DATA   U_CHAR   00D0H  1


MODULE INFORMATION:   STATIC OVERLAYABLE
   CODE SIZE        =    289    ----
   CONSTANT SIZE    =   ----    ----
   XDATA SIZE       =   ----    ----
   PDATA SIZE       =   ----    ----
   DATA SIZE        =   ----       6
   IDATA SIZE       =   ----    ----
   BIT SIZE         =   ----    ----
   EDATA SIZE       =   ----    ----
   HDATA SIZE       =   ----    ----
   XDATA CONST SIZE =   ----    ----
   FAR CONST SIZE   =   ----    ----
END OF MODULE INFORMATION.


C51 COMPILATION COMPLETE.  0 WARNING(S),  0 ERROR(S)
