C51 COMPILER V9.59.0.0   IRED                                                              06/08/2022 22:53:27 PAGE 1   


C51 COMPILER V9.59.0.0, COMPILATION OF MODULE IRED
OBJECT MODULE PLACED IN .\build\Release\src\ired.o
COMPILER INVOKED BY: D:\keil5.31\C51\BIN\C51.exe .\SRC\IRED.C PRINT(.\build\Release\src\ired.lst) OMF2 TABS(4) CODE NOCO
                    -ND SYMBOLS OPTIMIZE(8,SPEED) SMALL ROM(LARGE) INCDIR(D:\keil5.31\C51\INC;.\src) DEFINE(__UVISION_VERSION=526) OBJECT(.\b
                    -uild\Release\src\ired.o)

line level    source

   1          
   2          
   3          #include "ired.h"
   4          #include "REG52.H"
   5          #include "public.h"
   6          
   7          sbit IRED = P3^2;
   8          u8 gired_data[4];
   9          
  10          void ired_init(void)
  11          {
  12   1          IT0=1;  //下降沿触发
  13   1          EX0=1;  //打开中断0允许
  14   1          EA=1;   //打开总中断
  15   1          IRED=1; //初始化端口
  16   1      }
  17          
  18          void ired() interrupt 0 //外部中断0服务函数
  19          {
  20   1          u8 ired_high_time=0;
  21   1          u16 time_cnt=0;
  22   1          u8 i=0,j=0;
  23   1          if(IRED==0)
  24   1          {
  25   2              time_cnt=1000;
  26   2              while((!IRED)&&(time_cnt))//等待引导信号9ms低电平结束，若超过10ms强制退出
  27   2              {
  28   3                  delay_10us(1);//延时约10us
  29   3                  time_cnt--;
  30   3                  if(time_cnt==0)return;      
  31   3              }
  32   2              if(IRED)//引导信号9ms低电平已过，进入4.5ms高电平
  33   2              {
  34   3                  time_cnt=500;
  35   3                  while(IRED&&time_cnt)//等待引导信号4.5ms高电平结束，若超过5ms强制退出
  36   3                  {
  37   4                      delay_10us(1);
  38   4                      time_cnt--;
  39   4                      if(time_cnt==0)return;  
  40   4                  }
  41   3                  for(i=0;i<4;i++)//循环4次，读取4个字节数据
  42   3                  {
  43   4                      for(j=0;j<8;j++)//循环8次读取每位数据即一个字节
  44   4                      {
  45   5                          time_cnt=600;
  46   5                          while((IRED==0)&&time_cnt)//等待数据1或0前面的0.56ms结束，若超过6ms强制退出
  47   5                          {
  48   6                              delay_10us(1);
  49   6                              time_cnt--;
  50   6                              if(time_cnt==0)return;  
  51   6                          }
  52   5                          time_cnt=20;
  53   5                          while(IRED)//等待数据1或0后面的高电平结束，若超过2ms强制退出
C51 COMPILER V9.59.0.0   IRED                                                              06/08/2022 22:53:27 PAGE 2   

  54   5                          {
  55   6                              delay_10us(10);//约0.1ms
  56   6                              ired_high_time++;
  57   6                              if(ired_high_time>20)return;    
  58   6                          }
  59   5                          gired_data[i]>>=1;//先读取的为低位，然后是高位
  60   5                          if(ired_high_time>=8)//如果高电平时间大于0.8ms，数据则为1，否则为0
  61   5                              gired_data[i]|=0x80;
  62   5                          ired_high_time=0;//重新清零，等待下一次计算时间
  63   5                      }
  64   4                  }
  65   3              }
  66   2              // if(gired_data[2]!=~gired_data[3])//校验控制码与反码，错误则返回
  67   2              // {
  68   2              //  for(i=0;i<4;i++)
  69   2              //      gired_data[i]=0;
  70   2              //  return; 
  71   2              // }
  72   2          }       
  73   1      }
C51 COMPILER V9.59.0.0   IRED                                                              06/08/2022 22:53:27 PAGE 3   

ASSEMBLY LISTING OF GENERATED OBJECT CODE


             ; FUNCTION ired_init (BEGIN)
                                           ; SOURCE LINE # 10
                                           ; SOURCE LINE # 11
                                           ; SOURCE LINE # 12
0000 D288              SETB    IT0
                                           ; SOURCE LINE # 13
0002 D2A8              SETB    EX0
                                           ; SOURCE LINE # 14
0004 D2AF              SETB    EA
                                           ; SOURCE LINE # 15
0006 D2B2              SETB    IRED
                                           ; SOURCE LINE # 16
0008 22                RET     
             ; FUNCTION ired_init (END)

             ; FUNCTION ired (BEGIN)
0000 C0E0              PUSH    ACC
0002 C0F0              PUSH    B
0004 C083              PUSH    DPH
0006 C082              PUSH    DPL
0008 C0D0              PUSH    PSW
000A 75D000            MOV     PSW,#00H
000D C000              PUSH    AR0
000F C001              PUSH    AR1
0011 C002              PUSH    AR2
0013 C003              PUSH    AR3
0015 C004              PUSH    AR4
0017 C005              PUSH    AR5
0019 C006              PUSH    AR6
001B C007              PUSH    AR7
                                           ; SOURCE LINE # 18
                                           ; SOURCE LINE # 20
001D 750000      R     MOV     ired_high_time,#00H
                                           ; SOURCE LINE # 21
0020 750000      R     MOV     time_cnt,#00H
0023 750000      R     MOV     time_cnt+01H,#00H
                                           ; SOURCE LINE # 22
0026 750000      R     MOV     i,#00H
0029 750000      R     MOV     j,#00H
                                           ; SOURCE LINE # 23
002C 30B203            JNB     IRED,$ + 6H
002F 020000      R     LJMP    ?C0006
                                           ; SOURCE LINE # 24
                                           ; SOURCE LINE # 25
0032 750003      R     MOV     time_cnt,#03H
0035 7500E8      R     MOV     time_cnt+01H,#0E8H
0038         ?C0003:
                                           ; SOURCE LINE # 26
0038 20B21E            JB      IRED,?C0004
003B E500        R     MOV     A,time_cnt+01H
003D 4500        R     ORL     A,time_cnt
003F 6018              JZ      ?C0004
                                           ; SOURCE LINE # 27
                                           ; SOURCE LINE # 28
0041 7F01              MOV     R7,#01H
0043 7E00              MOV     R6,#00H
0045 120000      E     LCALL   _delay_10us
                                           ; SOURCE LINE # 29
0048 E500        R     MOV     A,time_cnt+01H
C51 COMPILER V9.59.0.0   IRED                                                              06/08/2022 22:53:27 PAGE 4   

004A 1500        R     DEC     time_cnt+01H
004C 7002              JNZ     ?C0024
004E 1500        R     DEC     time_cnt
0050         ?C0024:
                                           ; SOURCE LINE # 30
0050 E500        R     MOV     A,time_cnt+01H
0052 4500        R     ORL     A,time_cnt
0054 70E2              JNZ     ?C0003
0056 020000      R     LJMP    ?C0006
                                           ; SOURCE LINE # 31
0059         ?C0004:
                                           ; SOURCE LINE # 32
0059 20B203            JB      IRED,$ + 6H
005C 020000      R     LJMP    ?C0006
                                           ; SOURCE LINE # 33
                                           ; SOURCE LINE # 34
005F 750001      R     MOV     time_cnt,#01H
0062 7500F4      R     MOV     time_cnt+01H,#0F4H
0065         ?C0008:
                                           ; SOURCE LINE # 35
0065 30B21E            JNB     IRED,?C0009
0068 E500        R     MOV     A,time_cnt+01H
006A 4500        R     ORL     A,time_cnt
006C 6018              JZ      ?C0009
                                           ; SOURCE LINE # 36
                                           ; SOURCE LINE # 37
006E 7F01              MOV     R7,#01H
0070 7E00              MOV     R6,#00H
0072 120000      E     LCALL   _delay_10us
                                           ; SOURCE LINE # 38
0075 E500        R     MOV     A,time_cnt+01H
0077 1500        R     DEC     time_cnt+01H
0079 7002              JNZ     ?C0025
007B 1500        R     DEC     time_cnt
007D         ?C0025:
                                           ; SOURCE LINE # 39
007D E500        R     MOV     A,time_cnt+01H
007F 4500        R     ORL     A,time_cnt
0081 70E2              JNZ     ?C0008
0083 020000      R     LJMP    ?C0006
                                           ; SOURCE LINE # 40
0086         ?C0009:
                                           ; SOURCE LINE # 41
0086 750000      R     MOV     i,#00H
0089         ?C0011:
0089 C3                CLR     C
008A E500        R     MOV     A,i
008C 9404              SUBB    A,#04H
008E 7480              MOV     A,#080H
0090 9480              SUBB    A,#080H
0092 4003              JC      $ + 5H
0094 020000      R     LJMP    ?C0006
                                           ; SOURCE LINE # 42
                                           ; SOURCE LINE # 43
0097 750000      R     MOV     j,#00H
009A         ?C0014:
009A C3                CLR     C
009B E500        R     MOV     A,j
009D 9408              SUBB    A,#08H
009F 7480              MOV     A,#080H
00A1 9480              SUBB    A,#080H
00A3 506D              JNC     ?C0013
C51 COMPILER V9.59.0.0   IRED                                                              06/08/2022 22:53:27 PAGE 5   

                                           ; SOURCE LINE # 44
                                           ; SOURCE LINE # 45
00A5 750002      R     MOV     time_cnt,#02H
00A8 750058      R     MOV     time_cnt+01H,#058H
00AB         ?C0017:
                                           ; SOURCE LINE # 46
00AB 20B21D            JB      IRED,?C0018
00AE E500        R     MOV     A,time_cnt+01H
00B0 4500        R     ORL     A,time_cnt
00B2 6017              JZ      ?C0018
                                           ; SOURCE LINE # 47
                                           ; SOURCE LINE # 48
00B4 7F01              MOV     R7,#01H
00B6 7E00              MOV     R6,#00H
00B8 120000      E     LCALL   _delay_10us
                                           ; SOURCE LINE # 49
00BB E500        R     MOV     A,time_cnt+01H
00BD 1500        R     DEC     time_cnt+01H
00BF 7002              JNZ     ?C0026
00C1 1500        R     DEC     time_cnt
00C3         ?C0026:
                                           ; SOURCE LINE # 50
00C3 E500        R     MOV     A,time_cnt+01H
00C5 4500        R     ORL     A,time_cnt
00C7 70E2              JNZ     ?C0017
00C9 804C              SJMP    ?C0006
                                           ; SOURCE LINE # 51
00CB         ?C0018:
                                           ; SOURCE LINE # 52
00CB 750000      R     MOV     time_cnt,#00H
00CE 750014      R     MOV     time_cnt+01H,#014H
00D1         ?C0020:
                                           ; SOURCE LINE # 53
00D1 30B216            JNB     IRED,?C0021
                                           ; SOURCE LINE # 54
                                           ; SOURCE LINE # 55
00D4 7F0A              MOV     R7,#0AH
00D6 7E00              MOV     R6,#00H
00D8 120000      E     LCALL   _delay_10us
                                           ; SOURCE LINE # 56
00DB 0500        R     INC     ired_high_time
                                           ; SOURCE LINE # 57
00DD D3                SETB    C
00DE E500        R     MOV     A,ired_high_time
00E0 9414              SUBB    A,#014H
00E2 7480              MOV     A,#080H
00E4 9480              SUBB    A,#080H
00E6 40E9              JC      ?C0020
00E8         ?C0027:
00E8 802D              SJMP    ?C0006
                                           ; SOURCE LINE # 58
00EA         ?C0021:
                                           ; SOURCE LINE # 59
00EA 7400        R     MOV     A,#LOW gired_data
00EC 2500        R     ADD     A,i
00EE F8                MOV     R0,A
00EF C000              PUSH    AR0
00F1 E6                MOV     A,@R0
00F2 C3                CLR     C
00F3 13                RRC     A
00F4 D000              POP     AR0
00F6 F6                MOV     @R0,A
C51 COMPILER V9.59.0.0   IRED                                                              06/08/2022 22:53:27 PAGE 6   

                                           ; SOURCE LINE # 60
00F7 C3                CLR     C
00F8 E500        R     MOV     A,ired_high_time
00FA 9408              SUBB    A,#08H
00FC 7480              MOV     A,#080H
00FE 9480              SUBB    A,#080H
0100 4009              JC      ?C0023
                                           ; SOURCE LINE # 61
0102 7400        R     MOV     A,#LOW gired_data
0104 2500        R     ADD     A,i
0106 F8                MOV     R0,A
0107 E6                MOV     A,@R0
0108 4480              ORL     A,#080H
010A F6                MOV     @R0,A
010B         ?C0023:
                                           ; SOURCE LINE # 62
010B 750000      R     MOV     ired_high_time,#00H
                                           ; SOURCE LINE # 63
010E 0500        R     INC     j
0110 8088              SJMP    ?C0014
                                           ; SOURCE LINE # 64
0112         ?C0013:
0112 0500        R     INC     i
0114 020000      R     LJMP    ?C0011
                                           ; SOURCE LINE # 65
                                           ; SOURCE LINE # 72
                                           ; SOURCE LINE # 73
0117         ?C0006:
0117 D007              POP     AR7
0119 D006              POP     AR6
011B D005              POP     AR5
011D D004              POP     AR4
011F D003              POP     AR3
0121 D002              POP     AR2
0123 D001              POP     AR1
0125 D000              POP     AR0
0127 D0D0              POP     PSW
0129 D082              POP     DPL
012B D083              POP     DPH
012D D0F0              POP     B
012F D0E0              POP     ACC
0131 32                RETI    
             ; FUNCTION ired (END)

C51 COMPILER V9.59.0.0   IRED                                                              06/08/2022 22:53:27 PAGE 7   

NAME                                    CLASS   MSPACE  TYPE    OFFSET  SIZE
====                                    =====   ======  ====    ======  ====


P0 . . . . . . . . . . . . . . . . . .  SFR      DATA   U_CHAR   0080H  1
P1 . . . . . . . . . . . . . . . . . .  SFR      DATA   U_CHAR   0090H  1
P2 . . . . . . . . . . . . . . . . . .  SFR      DATA   U_CHAR   00A0H  1
P3 . . . . . . . . . . . . . . . . . .  SFR      DATA   U_CHAR   00B0H  1
T0 . . . . . . . . . . . . . . . . . .  ABSBIT   -----  BIT      00B4H  1
AC . . . . . . . . . . . . . . . . . .  ABSBIT   -----  BIT      00D6H  1
T1 . . . . . . . . . . . . . . . . . .  ABSBIT   -----  BIT      00B5H  1
T2 . . . . . . . . . . . . . . . . . .  ABSBIT   -----  BIT      0090H  1
EA . . . . . . . . . . . . . . . . . .  ABSBIT   -----  BIT      00AFH  1
gired_data . . . . . . . . . . . . . .  PUBLIC   DATA   ARRAY    0000H  4
IE . . . . . . . . . . . . . . . . . .  SFR      DATA   U_CHAR   00A8H  1
EXF2 . . . . . . . . . . . . . . . . .  ABSBIT   -----  BIT      00CEH  1
RD . . . . . . . . . . . . . . . . . .  ABSBIT   -----  BIT      00B7H  1
ES . . . . . . . . . . . . . . . . . .  ABSBIT   -----  BIT      00ACH  1
IP . . . . . . . . . . . . . . . . . .  SFR      DATA   U_CHAR   00B8H  1
RI . . . . . . . . . . . . . . . . . .  ABSBIT   -----  BIT      0098H  1
INT0 . . . . . . . . . . . . . . . . .  ABSBIT   -----  BIT      00B2H  1
CY . . . . . . . . . . . . . . . . . .  ABSBIT   -----  BIT      00D7H  1
TI . . . . . . . . . . . . . . . . . .  ABSBIT   -----  BIT      0099H  1
INT1 . . . . . . . . . . . . . . . . .  ABSBIT   -----  BIT      00B3H  1
RCAP2H . . . . . . . . . . . . . . . .  SFR      DATA   U_CHAR   00CBH  1
PS . . . . . . . . . . . . . . . . . .  ABSBIT   -----  BIT      00BCH  1
SP . . . . . . . . . . . . . . . . . .  SFR      DATA   U_CHAR   0081H  1
T2EX . . . . . . . . . . . . . . . . .  ABSBIT   -----  BIT      0091H  1
IRED . . . . . . . . . . . . . . . . .  ABSBIT   -----  BIT      00B2H  1
OV . . . . . . . . . . . . . . . . . .  ABSBIT   -----  BIT      00D2H  1
ired . . . . . . . . . . . . . . . . .  PUBLIC   CODE   PROC     0000H  -----
  ired_high_time . . . . . . . . . . .  AUTO     DATA   U_CHAR   0000H  1
  time_cnt . . . . . . . . . . . . . .  AUTO     DATA   U_INT    0001H  2
  i. . . . . . . . . . . . . . . . . .  AUTO     DATA   U_CHAR   0003H  1
  j. . . . . . . . . . . . . . . . . .  AUTO     DATA   U_CHAR   0004H  1
RCAP2L . . . . . . . . . . . . . . . .  SFR      DATA   U_CHAR   00CAH  1
C_T2 . . . . . . . . . . . . . . . . .  ABSBIT   -----  BIT      00C9H  1
WR . . . . . . . . . . . . . . . . . .  ABSBIT   -----  BIT      00B6H  1
u8 . . . . . . . . . . . . . . . . . .  TYPEDEF  -----  U_CHAR   -----  1
RCLK . . . . . . . . . . . . . . . . .  ABSBIT   -----  BIT      00CDH  1
TCLK . . . . . . . . . . . . . . . . .  ABSBIT   -----  BIT      00CCH  1
SBUF . . . . . . . . . . . . . . . . .  SFR      DATA   U_CHAR   0099H  1
PCON . . . . . . . . . . . . . . . . .  SFR      DATA   U_CHAR   0087H  1
SCON . . . . . . . . . . . . . . . . .  SFR      DATA   U_CHAR   0098H  1
TMOD . . . . . . . . . . . . . . . . .  SFR      DATA   U_CHAR   0089H  1
TCON . . . . . . . . . . . . . . . . .  SFR      DATA   U_CHAR   0088H  1
_delay_10us. . . . . . . . . . . . . .  EXTERN   CODE   PROC     -----  -----
ired_init. . . . . . . . . . . . . . .  PUBLIC   CODE   PROC     0000H  -----
IE0. . . . . . . . . . . . . . . . . .  ABSBIT   -----  BIT      0089H  1
IE1. . . . . . . . . . . . . . . . . .  ABSBIT   -----  BIT      008BH  1
B. . . . . . . . . . . . . . . . . . .  SFR      DATA   U_CHAR   00F0H  1
CP_RL2 . . . . . . . . . . . . . . . .  ABSBIT   -----  BIT      00C8H  1
ACC. . . . . . . . . . . . . . . . . .  SFR      DATA   U_CHAR   00E0H  1
ET0. . . . . . . . . . . . . . . . . .  ABSBIT   -----  BIT      00A9H  1
ET1. . . . . . . . . . . . . . . . . .  ABSBIT   -----  BIT      00ABH  1
TF0. . . . . . . . . . . . . . . . . .  ABSBIT   -----  BIT      008DH  1
ET2. . . . . . . . . . . . . . . . . .  ABSBIT   -----  BIT      00ADH  1
TF1. . . . . . . . . . . . . . . . . .  ABSBIT   -----  BIT      008FH  1
TF2. . . . . . . . . . . . . . . . . .  ABSBIT   -----  BIT      00CFH  1
RB8. . . . . . . . . . . . . . . . . .  ABSBIT   -----  BIT      009AH  1
TH0. . . . . . . . . . . . . . . . . .  SFR      DATA   U_CHAR   008CH  1
C51 COMPILER V9.59.0.0   IRED                                                              06/08/2022 22:53:27 PAGE 8   

NAME                                    CLASS   MSPACE  TYPE    OFFSET  SIZE
====                                    =====   ======  ====    ======  ====


EX0. . . . . . . . . . . . . . . . . .  ABSBIT   -----  BIT      00A8H  1
IT0. . . . . . . . . . . . . . . . . .  ABSBIT   -----  BIT      0088H  1
TH1. . . . . . . . . . . . . . . . . .  SFR      DATA   U_CHAR   008DH  1
TB8. . . . . . . . . . . . . . . . . .  ABSBIT   -----  BIT      009BH  1
EX1. . . . . . . . . . . . . . . . . .  ABSBIT   -----  BIT      00AAH  1
IT1. . . . . . . . . . . . . . . . . .  ABSBIT   -----  BIT      008AH  1
TH2. . . . . . . . . . . . . . . . . .  SFR      DATA   U_CHAR   00CDH  1
P. . . . . . . . . . . . . . . . . . .  ABSBIT   -----  BIT      00D0H  1
SM0. . . . . . . . . . . . . . . . . .  ABSBIT   -----  BIT      009FH  1
TL0. . . . . . . . . . . . . . . . . .  SFR      DATA   U_CHAR   008AH  1
SM1. . . . . . . . . . . . . . . . . .  ABSBIT   -----  BIT      009EH  1
TL1. . . . . . . . . . . . . . . . . .  SFR      DATA   U_CHAR   008BH  1
SM2. . . . . . . . . . . . . . . . . .  ABSBIT   -----  BIT      009DH  1
TL2. . . . . . . . . . . . . . . . . .  SFR      DATA   U_CHAR   00CCH  1
PT0. . . . . . . . . . . . . . . . . .  ABSBIT   -----  BIT      00B9H  1
PT1. . . . . . . . . . . . . . . . . .  ABSBIT   -----  BIT      00BBH  1
RS0. . . . . . . . . . . . . . . . . .  ABSBIT   -----  BIT      00D3H  1
PT2. . . . . . . . . . . . . . . . . .  ABSBIT   -----  BIT      00BDH  1
TR0. . . . . . . . . . . . . . . . . .  ABSBIT   -----  BIT      008CH  1
RS1. . . . . . . . . . . . . . . . . .  ABSBIT   -----  BIT      00D4H  1
TR1. . . . . . . . . . . . . . . . . .  ABSBIT   -----  BIT      008EH  1
TR2. . . . . . . . . . . . . . . . . .  ABSBIT   -----  BIT      00CAH  1
PX0. . . . . . . . . . . . . . . . . .  ABSBIT   -----  BIT      00B8H  1
PX1. . . . . . . . . . . . . . . . . .  ABSBIT   -----  BIT      00BAH  1
u16. . . . . . . . . . . . . . . . . .  TYPEDEF  -----  U_INT    -----  2
DPH. . . . . . . . . . . . . . . . . .  SFR      DATA   U_CHAR   0083H  1
DPL. . . . . . . . . . . . . . . . . .  SFR      DATA   U_CHAR   0082H  1
EXEN2. . . . . . . . . . . . . . . . .  ABSBIT   -----  BIT      00CBH  1
REN. . . . . . . . . . . . . . . . . .  ABSBIT   -----  BIT      009CH  1
T2CON. . . . . . . . . . . . . . . . .  SFR      DATA   U_CHAR   00C8H  1
RXD. . . . . . . . . . . . . . . . . .  ABSBIT   -----  BIT      00B0H  1
TXD. . . . . . . . . . . . . . . . . .  ABSBIT   -----  BIT      00B1H  1
F0 . . . . . . . . . . . . . . . . . .  ABSBIT   -----  BIT      00D5H  1
PSW. . . . . . . . . . . . . . . . . .  SFR      DATA   U_CHAR   00D0H  1


MODULE INFORMATION:   STATIC OVERLAYABLE
   CODE SIZE        =    318    ----
   CONSTANT SIZE    =   ----    ----
   XDATA SIZE       =   ----    ----
   PDATA SIZE       =   ----    ----
   DATA SIZE        =      4       5
   IDATA SIZE       =   ----    ----
   BIT SIZE         =   ----    ----
   EDATA SIZE       =   ----    ----
   HDATA SIZE       =   ----    ----
   XDATA CONST SIZE =   ----    ----
   FAR CONST SIZE   =   ----    ----
END OF MODULE INFORMATION.


C51 COMPILATION COMPLETE.  0 WARNING(S),  0 ERROR(S)
