C51 COMPILER V9.59.0.0   KEY                                                               06/08/2022 22:53:27 PAGE 1   


C51 COMPILER V9.59.0.0, COMPILATION OF MODULE KEY
OBJECT MODULE PLACED IN .\build\Release\src\key.o
COMPILER INVOKED BY: D:\keil5.31\C51\BIN\C51.exe .\SRC\KEY.C PRINT(.\build\Release\src\key.lst) OMF2 TABS(4) CODE NOCOND
                    - SYMBOLS OPTIMIZE(8,SPEED) SMALL ROM(LARGE) INCDIR(D:\keil5.31\C51\INC;.\src) DEFINE(__UVISION_VERSION=526) OBJECT(.\bui
                    -ld\Release\src\key.o)

line level    source

   1          
   2          
   3          #include "key.h"
   4          #include "public.h"
   5          
   6          #define KEY_MATRIX_PORT P1
   7          u8 key_value = 0;
   8          
   9          sbit KEY1 = P3^1;
  10          sbit KEY2 = P3^0;
  11          sbit KEY3 = P3^2;
  12          sbit KEY4 = P3^3;
  13          
  14          #define KEY1_PRESS  1
  15          #define KEY2_PRESS  2
  16          #define KEY3_PRESS  3
  17          #define KEY4_PRESS  4
  18          #define KEY_UNPRESS 0   
  19          
  20          //下面是扫描式按键实现的按键功能
  21          
  22          u8 key_matrix_ranks_scan(void) //行列式扫描实现矩阵按键检测
  23          {
  24   1          u8 key_value=0;
  25   1      
  26   1          KEY_MATRIX_PORT=0xf7;//给第一列赋值0，其余全为1
  27   1          if(KEY_MATRIX_PORT!=0xf7)//判断第一列按键是否按下
  28   1          {
  29   2              delay_ms(100);//消抖
  30   2              switch(KEY_MATRIX_PORT)//保存第一列按键按下后的键值 
  31   2              {
  32   3                  case 0x77: key_value=1;break;
  33   3                  case 0xb7: key_value=5;break;
  34   3                  case 0xd7: key_value=9;break;
  35   3                  case 0xe7: key_value=13;break;
  36   3              }
  37   2          }
  38   1          while(KEY_MATRIX_PORT!=0xf7);//等待按键松开 
  39   1          
  40   1          KEY_MATRIX_PORT=0xfb;//给第二列赋值0，其余全为1
  41   1          if(KEY_MATRIX_PORT!=0xfb)//判断第二列按键是否按下
  42   1          {
  43   2              delay_ms(100);//消抖
  44   2              switch(KEY_MATRIX_PORT)//保存第二列按键按下后的键值 
  45   2              {
  46   3                  case 0x7b: key_value=2;break;
  47   3                  case 0xbb: key_value=6;break;
  48   3                  case 0xdb: key_value=10;break;
  49   3                  case 0xeb: key_value=14;break;
  50   3              }
  51   2          }
  52   1          while(KEY_MATRIX_PORT!=0xfb);//等待按键松开 
  53   1          
C51 COMPILER V9.59.0.0   KEY                                                               06/08/2022 22:53:27 PAGE 2   

  54   1          KEY_MATRIX_PORT=0xfd;//给第三列赋值0，其余全为1
  55   1          if(KEY_MATRIX_PORT!=0xfd)//判断第三列按键是否按下
  56   1          {
  57   2              delay_ms(100);//消抖
  58   2              switch(KEY_MATRIX_PORT)//保存第三列按键按下后的键值 
  59   2              {
  60   3                  case 0x7d: key_value=3;break;
  61   3                  case 0xbd: key_value=7;break;
  62   3                  case 0xdd: key_value=11;break;
  63   3                  case 0xed: key_value=15;break;
  64   3              }
  65   2          }
  66   1          while(KEY_MATRIX_PORT!=0xfd);//等待按键松开 
  67   1          
  68   1          KEY_MATRIX_PORT=0xfe;//给第四列赋值0，其余全为1
  69   1          if(KEY_MATRIX_PORT!=0xfe)//判断第四列按键是否按下
  70   1          {
  71   2              delay_ms(100);//消抖
  72   2              switch(KEY_MATRIX_PORT)//保存第四列按键按下后的键值 
  73   2              {
  74   3                  case 0x7e: key_value=4;break;
  75   3                  case 0xbe: key_value=8;break;
  76   3                  case 0xde: key_value=12;break;
  77   3                  case 0xee: key_value=16;break;
  78   3              }
  79   2          }
  80   1          while(KEY_MATRIX_PORT!=0xfe);//等待按键松开
  81   1          
  82   1          return key_value;       
  83   1      }
  84          
  85          //轮询扫描获取按键状态
  86          u8 key_scan(u8 mode)
  87          {
  88   1          static u8 key=1;
  89   1      
  90   1          if(mode)key=1;//连续扫描按键
  91   1          if(key==1&&(KEY1==0||KEY2==0||KEY3==0||KEY4==0))//任意按键按下
  92   1          {
  93   2              delay_ms(100);//消抖
  94   2              key=0;
  95   2              if(KEY1==0)
  96   2                  return KEY1_PRESS;
  97   2              else if(KEY2==0)
  98   2                  return KEY2_PRESS;
  99   2              else if(KEY3==0)
 100   2                  return KEY3_PRESS;
 101   2              else if(KEY4==0)
 102   2                  return KEY4_PRESS;  
 103   2          }
 104   1          else if(KEY1==1&&KEY2==1&&KEY3==1&&KEY4==1) //无按键按下
 105   1          {
 106   2              key=1;          
 107   2          }
 108   1          return KEY_UNPRESS;     
 109   1      }
 110          
 111          //下面通过中断来实现按键功能
 112          void exit0_init(void)
 113          {
 114   1          IT0=1; //下降沿触发
 115   1          EX0=1; //int0中断打开
C51 COMPILER V9.59.0.0   KEY                                                               06/08/2022 22:53:27 PAGE 3   

 116   1          EA=1; //打开总中断
 117   1      }
 118          void exit0() interrupt 0 //外部中断0的中断服务函数
 119          {
 120   1          if(KEY3 == 0)
 121   1              // LED1 = !LED1;
 122   1              delay_ms(100);
 123   1      }
C51 COMPILER V9.59.0.0   KEY                                                               06/08/2022 22:53:27 PAGE 4   

ASSEMBLY LISTING OF GENERATED OBJECT CODE


             ; FUNCTION key_matrix_ranks_scan (BEGIN)
                                           ; SOURCE LINE # 22
                                           ; SOURCE LINE # 23
                                           ; SOURCE LINE # 24
0000 E4                CLR     A
0001 F500        R     MOV     key_value,A
                                           ; SOURCE LINE # 26
0003 7590F7            MOV     P1,#0F7H
                                           ; SOURCE LINE # 27
0006 AF90              MOV     R7,P1
0008 EF                MOV     A,R7
0009 64F7              XRL     A,#0F7H
000B 602C              JZ      ?C0007
                                           ; SOURCE LINE # 28
                                           ; SOURCE LINE # 29
000D 7F64              MOV     R7,#064H
000F 7E00              MOV     R6,#00H
0011 120000      E     LCALL   _delay_ms
                                           ; SOURCE LINE # 30
0014 AF90              MOV     R7,P1
0016 EF                MOV     A,R7
0017 2449              ADD     A,#049H
0019 6011              JZ      ?C0004
001B 24E0              ADD     A,#0E0H
001D 6012              JZ      ?C0005
001F 24F0              ADD     A,#0F0H
0021 6013              JZ      ?C0006
0023 2470              ADD     A,#070H
0025 7012              JNZ     ?C0007
                                           ; SOURCE LINE # 31
                                           ; SOURCE LINE # 32
0027         ?C0003:
0027 750001      R     MOV     key_value,#01H
002A 800D              SJMP    ?C0007
                                           ; SOURCE LINE # 33
002C         ?C0004:
002C 750005      R     MOV     key_value,#05H
002F 8008              SJMP    ?C0007
                                           ; SOURCE LINE # 34
0031         ?C0005:
0031 750009      R     MOV     key_value,#09H
0034 8003              SJMP    ?C0007
                                           ; SOURCE LINE # 35
0036         ?C0006:
0036 75000D      R     MOV     key_value,#0DH
                                           ; SOURCE LINE # 36
                                           ; SOURCE LINE # 37
0039         ?C0007:
                                           ; SOURCE LINE # 38
0039 AF90              MOV     R7,P1
003B EF                MOV     A,R7
003C 64F7              XRL     A,#0F7H
003E 70F9              JNZ     ?C0007
                                           ; SOURCE LINE # 40
0040 7590FB            MOV     P1,#0FBH
                                           ; SOURCE LINE # 41
0043 AF90              MOV     R7,P1
0045 EF                MOV     A,R7
0046 64FB              XRL     A,#0FBH
C51 COMPILER V9.59.0.0   KEY                                                               06/08/2022 22:53:27 PAGE 5   

0048 602C              JZ      ?C0015
                                           ; SOURCE LINE # 42
                                           ; SOURCE LINE # 43
004A 7F64              MOV     R7,#064H
004C 7E00              MOV     R6,#00H
004E 120000      E     LCALL   _delay_ms
                                           ; SOURCE LINE # 44
0051 AF90              MOV     R7,P1
0053 EF                MOV     A,R7
0054 2445              ADD     A,#045H
0056 6011              JZ      ?C0012
0058 24E0              ADD     A,#0E0H
005A 6012              JZ      ?C0013
005C 24F0              ADD     A,#0F0H
005E 6013              JZ      ?C0014
0060 2470              ADD     A,#070H
0062 7012              JNZ     ?C0015
                                           ; SOURCE LINE # 45
                                           ; SOURCE LINE # 46
0064         ?C0011:
0064 750002      R     MOV     key_value,#02H
0067 800D              SJMP    ?C0015
                                           ; SOURCE LINE # 47
0069         ?C0012:
0069 750006      R     MOV     key_value,#06H
006C 8008              SJMP    ?C0015
                                           ; SOURCE LINE # 48
006E         ?C0013:
006E 75000A      R     MOV     key_value,#0AH
0071 8003              SJMP    ?C0015
                                           ; SOURCE LINE # 49
0073         ?C0014:
0073 75000E      R     MOV     key_value,#0EH
                                           ; SOURCE LINE # 50
                                           ; SOURCE LINE # 51
0076         ?C0015:
                                           ; SOURCE LINE # 52
0076 AF90              MOV     R7,P1
0078 EF                MOV     A,R7
0079 64FB              XRL     A,#0FBH
007B 70F9              JNZ     ?C0015
                                           ; SOURCE LINE # 54
007D 7590FD            MOV     P1,#0FDH
                                           ; SOURCE LINE # 55
0080 AF90              MOV     R7,P1
0082 EF                MOV     A,R7
0083 64FD              XRL     A,#0FDH
0085 602C              JZ      ?C0023
                                           ; SOURCE LINE # 56
                                           ; SOURCE LINE # 57
0087 7F64              MOV     R7,#064H
0089 7E00              MOV     R6,#00H
008B 120000      E     LCALL   _delay_ms
                                           ; SOURCE LINE # 58
008E AF90              MOV     R7,P1
0090 EF                MOV     A,R7
0091 2443              ADD     A,#043H
0093 6011              JZ      ?C0020
0095 24E0              ADD     A,#0E0H
0097 6012              JZ      ?C0021
0099 24F0              ADD     A,#0F0H
009B 6013              JZ      ?C0022
C51 COMPILER V9.59.0.0   KEY                                                               06/08/2022 22:53:27 PAGE 6   

009D 2470              ADD     A,#070H
009F 7012              JNZ     ?C0023
                                           ; SOURCE LINE # 59
                                           ; SOURCE LINE # 60
00A1         ?C0019:
00A1 750003      R     MOV     key_value,#03H
00A4 800D              SJMP    ?C0023
                                           ; SOURCE LINE # 61
00A6         ?C0020:
00A6 750007      R     MOV     key_value,#07H
00A9 8008              SJMP    ?C0023
                                           ; SOURCE LINE # 62
00AB         ?C0021:
00AB 75000B      R     MOV     key_value,#0BH
00AE 8003              SJMP    ?C0023
                                           ; SOURCE LINE # 63
00B0         ?C0022:
00B0 75000F      R     MOV     key_value,#0FH
                                           ; SOURCE LINE # 64
                                           ; SOURCE LINE # 65
00B3         ?C0023:
                                           ; SOURCE LINE # 66
00B3 AF90              MOV     R7,P1
00B5 EF                MOV     A,R7
00B6 64FD              XRL     A,#0FDH
00B8 70F9              JNZ     ?C0023
                                           ; SOURCE LINE # 68
00BA 7590FE            MOV     P1,#0FEH
                                           ; SOURCE LINE # 69
00BD AF90              MOV     R7,P1
00BF EF                MOV     A,R7
00C0 64FE              XRL     A,#0FEH
00C2 602C              JZ      ?C0031
                                           ; SOURCE LINE # 70
                                           ; SOURCE LINE # 71
00C4 7F64              MOV     R7,#064H
00C6 7E00              MOV     R6,#00H
00C8 120000      E     LCALL   _delay_ms
                                           ; SOURCE LINE # 72
00CB AF90              MOV     R7,P1
00CD EF                MOV     A,R7
00CE 2442              ADD     A,#042H
00D0 6011              JZ      ?C0028
00D2 24E0              ADD     A,#0E0H
00D4 6012              JZ      ?C0029
00D6 24F0              ADD     A,#0F0H
00D8 6013              JZ      ?C0030
00DA 2470              ADD     A,#070H
00DC 7012              JNZ     ?C0031
                                           ; SOURCE LINE # 73
                                           ; SOURCE LINE # 74
00DE         ?C0027:
00DE 750004      R     MOV     key_value,#04H
00E1 800D              SJMP    ?C0031
                                           ; SOURCE LINE # 75
00E3         ?C0028:
00E3 750008      R     MOV     key_value,#08H
00E6 8008              SJMP    ?C0031
                                           ; SOURCE LINE # 76
00E8         ?C0029:
00E8 75000C      R     MOV     key_value,#0CH
00EB 8003              SJMP    ?C0031
C51 COMPILER V9.59.0.0   KEY                                                               06/08/2022 22:53:27 PAGE 7   

                                           ; SOURCE LINE # 77
00ED         ?C0030:
00ED 750010      R     MOV     key_value,#010H
                                           ; SOURCE LINE # 78
                                           ; SOURCE LINE # 79
00F0         ?C0031:
                                           ; SOURCE LINE # 80
00F0 AF90              MOV     R7,P1
00F2 EF                MOV     A,R7
00F3 64FE              XRL     A,#0FEH
00F5 70F9              JNZ     ?C0031
                                           ; SOURCE LINE # 82
00F7 AF00        R     MOV     R7,key_value
                                           ; SOURCE LINE # 83
00F9 22                RET     
             ; FUNCTION key_matrix_ranks_scan (END)

             ; FUNCTION _key_scan (BEGIN)
                                           ; SOURCE LINE # 86
;---- Variable 'mode' assigned to Register 'R7' ----
                                           ; SOURCE LINE # 87
                                           ; SOURCE LINE # 90
0000 EF                MOV     A,R7
0001 6003              JZ      ?C0034
0003 750001      R     MOV     key,#01H
0006         ?C0034:
                                           ; SOURCE LINE # 91
0006 E500        R     MOV     A,key
0008 6401              XRL     A,#01H
000A 702E              JNZ     ?C0035
000C 30B109            JNB     KEY1,?C0036
000F 30B006            JNB     KEY2,?C0036
0012 30B203            JNB     KEY3,?C0036
0015 20B322            JB      KEY4,?C0035
0018         ?C0036:
                                           ; SOURCE LINE # 92
                                           ; SOURCE LINE # 93
0018 7F64              MOV     R7,#064H
001A 7E00              MOV     R6,#00H
001C 120000      E     LCALL   _delay_ms
                                           ; SOURCE LINE # 94
001F E4                CLR     A
0020 F500        R     MOV     key,A
                                           ; SOURCE LINE # 95
0022 20B103            JB      KEY1,?C0037
                                           ; SOURCE LINE # 96
0025 7F01              MOV     R7,#01H
0027 22                RET     
0028         ?C0037:
                                           ; SOURCE LINE # 97
0028 20B003            JB      KEY2,?C0040
                                           ; SOURCE LINE # 98
002B 7F02              MOV     R7,#02H
002D 22                RET     
002E         ?C0040:
                                           ; SOURCE LINE # 99
002E 20B203            JB      KEY3,?C0042
                                           ; SOURCE LINE # 100
0031 7F03              MOV     R7,#03H
0033 22                RET     
0034         ?C0042:
                                           ; SOURCE LINE # 101
C51 COMPILER V9.59.0.0   KEY                                                               06/08/2022 22:53:27 PAGE 8   

0034 20B312            JB      KEY4,?C0045
                                           ; SOURCE LINE # 102
0037 7F04              MOV     R7,#04H
0039 22                RET     
                                           ; SOURCE LINE # 103
003A         ?C0035:
                                           ; SOURCE LINE # 104
003A 30B10C            JNB     KEY1,?C0045
003D 30B009            JNB     KEY2,?C0045
0040 30B206            JNB     KEY3,?C0045
0043 30B303            JNB     KEY4,?C0045
                                           ; SOURCE LINE # 105
                                           ; SOURCE LINE # 106
0046 750001      R     MOV     key,#01H
                                           ; SOURCE LINE # 107
0049         ?C0045:
                                           ; SOURCE LINE # 108
0049 7F00              MOV     R7,#00H
                                           ; SOURCE LINE # 109
004B         ?C0038:
004B 22                RET     
             ; FUNCTION _key_scan (END)

             ; FUNCTION exit0_init (BEGIN)
                                           ; SOURCE LINE # 112
                                           ; SOURCE LINE # 113
                                           ; SOURCE LINE # 114
0000 D288              SETB    IT0
                                           ; SOURCE LINE # 115
0002 D2A8              SETB    EX0
                                           ; SOURCE LINE # 116
0004 D2AF              SETB    EA
                                           ; SOURCE LINE # 117
0006 22                RET     
             ; FUNCTION exit0_init (END)

             ; FUNCTION exit0 (BEGIN)
0000 C0E0              PUSH    ACC
0002 C0F0              PUSH    B
0004 C083              PUSH    DPH
0006 C082              PUSH    DPL
0008 C0D0              PUSH    PSW
000A 75D000            MOV     PSW,#00H
000D C000              PUSH    AR0
000F C001              PUSH    AR1
0011 C002              PUSH    AR2
0013 C003              PUSH    AR3
0015 C004              PUSH    AR4
0017 C005              PUSH    AR5
0019 C006              PUSH    AR6
001B C007              PUSH    AR7
                                           ; SOURCE LINE # 118
                                           ; SOURCE LINE # 120
001D 20B207            JB      KEY3,?C0049
                                           ; SOURCE LINE # 122
0020 7F64              MOV     R7,#064H
0022 7E00              MOV     R6,#00H
0024 120000      E     LCALL   _delay_ms
                                           ; SOURCE LINE # 123
0027         ?C0049:
0027 D007              POP     AR7
0029 D006              POP     AR6
C51 COMPILER V9.59.0.0   KEY                                                               06/08/2022 22:53:27 PAGE 9   

002B D005              POP     AR5
002D D004              POP     AR4
002F D003              POP     AR3
0031 D002              POP     AR2
0033 D001              POP     AR1
0035 D000              POP     AR0
0037 D0D0              POP     PSW
0039 D082              POP     DPL
003B D083              POP     DPH
003D D0F0              POP     B
003F D0E0              POP     ACC
0041 32                RETI    
             ; FUNCTION exit0 (END)

C51 COMPILER V9.59.0.0   KEY                                                               06/08/2022 22:53:27 PAGE 10  

NAME                                    CLASS   MSPACE  TYPE    OFFSET  SIZE
====                                    =====   ======  ====    ======  ====


P0 . . . . . . . . . . . . . . . . . .  SFR      DATA   U_CHAR   0080H  1
P1 . . . . . . . . . . . . . . . . . .  SFR      DATA   U_CHAR   0090H  1
P2 . . . . . . . . . . . . . . . . . .  SFR      DATA   U_CHAR   00A0H  1
P3 . . . . . . . . . . . . . . . . . .  SFR      DATA   U_CHAR   00B0H  1
exit0_init . . . . . . . . . . . . . .  PUBLIC   CODE   PROC     0000H  -----
T0 . . . . . . . . . . . . . . . . . .  ABSBIT   -----  BIT      00B4H  1
AC . . . . . . . . . . . . . . . . . .  ABSBIT   -----  BIT      00D6H  1
T1 . . . . . . . . . . . . . . . . . .  ABSBIT   -----  BIT      00B5H  1
T2 . . . . . . . . . . . . . . . . . .  ABSBIT   -----  BIT      0090H  1
EA . . . . . . . . . . . . . . . . . .  ABSBIT   -----  BIT      00AFH  1
IE . . . . . . . . . . . . . . . . . .  SFR      DATA   U_CHAR   00A8H  1
EXF2 . . . . . . . . . . . . . . . . .  ABSBIT   -----  BIT      00CEH  1
RD . . . . . . . . . . . . . . . . . .  ABSBIT   -----  BIT      00B7H  1
ES . . . . . . . . . . . . . . . . . .  ABSBIT   -----  BIT      00ACH  1
IP . . . . . . . . . . . . . . . . . .  SFR      DATA   U_CHAR   00B8H  1
KEY1 . . . . . . . . . . . . . . . . .  ABSBIT   -----  BIT      00B1H  1
RI . . . . . . . . . . . . . . . . . .  ABSBIT   -----  BIT      0098H  1
KEY2 . . . . . . . . . . . . . . . . .  ABSBIT   -----  BIT      00B0H  1
INT0 . . . . . . . . . . . . . . . . .  ABSBIT   -----  BIT      00B2H  1
CY . . . . . . . . . . . . . . . . . .  ABSBIT   -----  BIT      00D7H  1
KEY3 . . . . . . . . . . . . . . . . .  ABSBIT   -----  BIT      00B2H  1
TI . . . . . . . . . . . . . . . . . .  ABSBIT   -----  BIT      0099H  1
INT1 . . . . . . . . . . . . . . . . .  ABSBIT   -----  BIT      00B3H  1
KEY4 . . . . . . . . . . . . . . . . .  ABSBIT   -----  BIT      00B3H  1
RCAP2H . . . . . . . . . . . . . . . .  SFR      DATA   U_CHAR   00CBH  1
PS . . . . . . . . . . . . . . . . . .  ABSBIT   -----  BIT      00BCH  1
SP . . . . . . . . . . . . . . . . . .  SFR      DATA   U_CHAR   0081H  1
T2EX . . . . . . . . . . . . . . . . .  ABSBIT   -----  BIT      0091H  1
OV . . . . . . . . . . . . . . . . . .  ABSBIT   -----  BIT      00D2H  1
RCAP2L . . . . . . . . . . . . . . . .  SFR      DATA   U_CHAR   00CAH  1
C_T2 . . . . . . . . . . . . . . . . .  ABSBIT   -----  BIT      00C9H  1
WR . . . . . . . . . . . . . . . . . .  ABSBIT   -----  BIT      00B6H  1
u8 . . . . . . . . . . . . . . . . . .  TYPEDEF  -----  U_CHAR   -----  1
RCLK . . . . . . . . . . . . . . . . .  ABSBIT   -----  BIT      00CDH  1
TCLK . . . . . . . . . . . . . . . . .  ABSBIT   -----  BIT      00CCH  1
SBUF . . . . . . . . . . . . . . . . .  SFR      DATA   U_CHAR   0099H  1
PCON . . . . . . . . . . . . . . . . .  SFR      DATA   U_CHAR   0087H  1
SCON . . . . . . . . . . . . . . . . .  SFR      DATA   U_CHAR   0098H  1
TMOD . . . . . . . . . . . . . . . . .  SFR      DATA   U_CHAR   0089H  1
TCON . . . . . . . . . . . . . . . . .  SFR      DATA   U_CHAR   0088H  1
IE0. . . . . . . . . . . . . . . . . .  ABSBIT   -----  BIT      0089H  1
IE1. . . . . . . . . . . . . . . . . .  ABSBIT   -----  BIT      008BH  1
B. . . . . . . . . . . . . . . . . . .  SFR      DATA   U_CHAR   00F0H  1
CP_RL2 . . . . . . . . . . . . . . . .  ABSBIT   -----  BIT      00C8H  1
ACC. . . . . . . . . . . . . . . . . .  SFR      DATA   U_CHAR   00E0H  1
ET0. . . . . . . . . . . . . . . . . .  ABSBIT   -----  BIT      00A9H  1
ET1. . . . . . . . . . . . . . . . . .  ABSBIT   -----  BIT      00ABH  1
TF0. . . . . . . . . . . . . . . . . .  ABSBIT   -----  BIT      008DH  1
key_value. . . . . . . . . . . . . . .  PUBLIC   DATA   U_CHAR   0001H  1
ET2. . . . . . . . . . . . . . . . . .  ABSBIT   -----  BIT      00ADH  1
TF1. . . . . . . . . . . . . . . . . .  ABSBIT   -----  BIT      008FH  1
TF2. . . . . . . . . . . . . . . . . .  ABSBIT   -----  BIT      00CFH  1
RB8. . . . . . . . . . . . . . . . . .  ABSBIT   -----  BIT      009AH  1
TH0. . . . . . . . . . . . . . . . . .  SFR      DATA   U_CHAR   008CH  1
EX0. . . . . . . . . . . . . . . . . .  ABSBIT   -----  BIT      00A8H  1
IT0. . . . . . . . . . . . . . . . . .  ABSBIT   -----  BIT      0088H  1
TH1. . . . . . . . . . . . . . . . . .  SFR      DATA   U_CHAR   008DH  1
C51 COMPILER V9.59.0.0   KEY                                                               06/08/2022 22:53:27 PAGE 11  

NAME                                    CLASS   MSPACE  TYPE    OFFSET  SIZE
====                                    =====   ======  ====    ======  ====


TB8. . . . . . . . . . . . . . . . . .  ABSBIT   -----  BIT      009BH  1
EX1. . . . . . . . . . . . . . . . . .  ABSBIT   -----  BIT      00AAH  1
IT1. . . . . . . . . . . . . . . . . .  ABSBIT   -----  BIT      008AH  1
TH2. . . . . . . . . . . . . . . . . .  SFR      DATA   U_CHAR   00CDH  1
key_matrix_ranks_scan. . . . . . . . .  PUBLIC   CODE   PROC     0000H  -----
  key_value. . . . . . . . . . . . . .  AUTO     DATA   U_CHAR   0000H  1
P. . . . . . . . . . . . . . . . . . .  ABSBIT   -----  BIT      00D0H  1
SM0. . . . . . . . . . . . . . . . . .  ABSBIT   -----  BIT      009FH  1
TL0. . . . . . . . . . . . . . . . . .  SFR      DATA   U_CHAR   008AH  1
SM1. . . . . . . . . . . . . . . . . .  ABSBIT   -----  BIT      009EH  1
TL1. . . . . . . . . . . . . . . . . .  SFR      DATA   U_CHAR   008BH  1
_key_scan. . . . . . . . . . . . . . .  PUBLIC   CODE   PROC     0000H  -----
  mode . . . . . . . . . . . . . . . .  * REG *  DATA   U_CHAR   0007H  1
  key. . . . . . . . . . . . . . . . .  STATIC   DATA   U_CHAR   0000H  1
SM2. . . . . . . . . . . . . . . . . .  ABSBIT   -----  BIT      009DH  1
TL2. . . . . . . . . . . . . . . . . .  SFR      DATA   U_CHAR   00CCH  1
_delay_ms. . . . . . . . . . . . . . .  EXTERN   CODE   PROC     -----  -----
PT0. . . . . . . . . . . . . . . . . .  ABSBIT   -----  BIT      00B9H  1
PT1. . . . . . . . . . . . . . . . . .  ABSBIT   -----  BIT      00BBH  1
RS0. . . . . . . . . . . . . . . . . .  ABSBIT   -----  BIT      00D3H  1
PT2. . . . . . . . . . . . . . . . . .  ABSBIT   -----  BIT      00BDH  1
TR0. . . . . . . . . . . . . . . . . .  ABSBIT   -----  BIT      008CH  1
RS1. . . . . . . . . . . . . . . . . .  ABSBIT   -----  BIT      00D4H  1
TR1. . . . . . . . . . . . . . . . . .  ABSBIT   -----  BIT      008EH  1
TR2. . . . . . . . . . . . . . . . . .  ABSBIT   -----  BIT      00CAH  1
PX0. . . . . . . . . . . . . . . . . .  ABSBIT   -----  BIT      00B8H  1
PX1. . . . . . . . . . . . . . . . . .  ABSBIT   -----  BIT      00BAH  1
u16. . . . . . . . . . . . . . . . . .  TYPEDEF  -----  U_INT    -----  2
DPH. . . . . . . . . . . . . . . . . .  SFR      DATA   U_CHAR   0083H  1
DPL. . . . . . . . . . . . . . . . . .  SFR      DATA   U_CHAR   0082H  1
EXEN2. . . . . . . . . . . . . . . . .  ABSBIT   -----  BIT      00CBH  1
REN. . . . . . . . . . . . . . . . . .  ABSBIT   -----  BIT      009CH  1
T2CON. . . . . . . . . . . . . . . . .  SFR      DATA   U_CHAR   00C8H  1
exit0. . . . . . . . . . . . . . . . .  PUBLIC   CODE   PROC     0000H  -----
RXD. . . . . . . . . . . . . . . . . .  ABSBIT   -----  BIT      00B0H  1
TXD. . . . . . . . . . . . . . . . . .  ABSBIT   -----  BIT      00B1H  1
F0 . . . . . . . . . . . . . . . . . .  ABSBIT   -----  BIT      00D5H  1
PSW. . . . . . . . . . . . . . . . . .  SFR      DATA   U_CHAR   00D0H  1


MODULE INFORMATION:   STATIC OVERLAYABLE
   CODE SIZE        =    402    ----
   CONSTANT SIZE    =   ----    ----
   XDATA SIZE       =   ----    ----
   PDATA SIZE       =   ----    ----
   DATA SIZE        =      2       1
   IDATA SIZE       =   ----    ----
   BIT SIZE         =   ----    ----
   EDATA SIZE       =   ----    ----
   HDATA SIZE       =   ----    ----
   XDATA CONST SIZE =   ----    ----
   FAR CONST SIZE   =   ----    ----
END OF MODULE INFORMATION.


C51 COMPILATION COMPLETE.  0 WARNING(S),  0 ERROR(S)
