C51 COMPILER V9.59.0.0   UART                                                              06/08/2022 22:53:27 PAGE 1   


C51 COMPILER V9.59.0.0, COMPILATION OF MODULE UART
OBJECT MODULE PLACED IN .\build\Release\src\uart.o
COMPILER INVOKED BY: D:\keil5.31\C51\BIN\C51.exe .\SRC\UART.C PRINT(.\build\Release\src\uart.lst) OMF2 TABS(4) CODE NOCO
                    -ND SYMBOLS OPTIMIZE(8,SPEED) SMALL ROM(LARGE) INCDIR(D:\keil5.31\C51\INC;.\src) DEFINE(__UVISION_VERSION=526) OBJECT(.\b
                    -uild\Release\src\uart.o)

line level    source

   1          
   2          
   3          
   4          
   5          #include "uart.h"
   6          
   7          bit busy;
   8          
   9          void uart_init(u8 baud)
  10          {
  11   1          TMOD|=0X20; //设置计数器工作方式2
  12   1          SCON=0X50;  //设置为工作方式1
  13   1          PCON=0X80;  //波特率加倍
  14   1          TH1=baud;   //计数器初始值设置
  15   1          TL1=baud;
  16   1          ES=1;       //打开接收中断
  17   1          EA=1;       //打开总中断
  18   1          TR1=1;      //打开计数器        
  19   1      }
  20          
  21          void SendData(u8 dat)
  22          {
  23   1          while (busy);          
  24   1          ACC = dat;   
  25   1          TB8 = 1; 
  26   1      
  27   1          busy = 1;
  28   1          SBUF = ACC;             
  29   1      }
  30          void SendString(char *s)
  31          {
  32   1          while (*s)             
  33   1          {
  34   2              SendData(*s++);    
  35   2          }
  36   1      }
  37          
  38          void uart() interrupt 4 //串口通信中断函数
  39          {
  40   1          if (RI) //收到数据了
  41   1          {
  42   2              RI = 0;             //Clear receive interrupt flag
  43   2              P0 = SBUF;          //P0 show UART data
  44   2          }
  45   1          if (TI)
  46   1          {
  47   2              TI = 0;             //Clear transmit interrupt flag
  48   2              busy = 0;           //Clear transmit busy flag
  49   2          }           
  50   1      }
C51 COMPILER V9.59.0.0   UART                                                              06/08/2022 22:53:27 PAGE 2   

ASSEMBLY LISTING OF GENERATED OBJECT CODE


             ; FUNCTION _uart_init (BEGIN)
                                           ; SOURCE LINE # 9
;---- Variable 'baud' assigned to Register 'R7' ----
                                           ; SOURCE LINE # 10
                                           ; SOURCE LINE # 11
0000 438920            ORL     TMOD,#020H
                                           ; SOURCE LINE # 12
0003 759850            MOV     SCON,#050H
                                           ; SOURCE LINE # 13
0006 758780            MOV     PCON,#080H
                                           ; SOURCE LINE # 14
0009 8F8D              MOV     TH1,R7
                                           ; SOURCE LINE # 15
000B 8F8B              MOV     TL1,R7
                                           ; SOURCE LINE # 16
000D D2AC              SETB    ES
                                           ; SOURCE LINE # 17
000F D2AF              SETB    EA
                                           ; SOURCE LINE # 18
0011 D28E              SETB    TR1
                                           ; SOURCE LINE # 19
0013 22                RET     
             ; FUNCTION _uart_init (END)

             ; FUNCTION _SendData (BEGIN)
                                           ; SOURCE LINE # 21
;---- Variable 'dat' assigned to Register 'R7' ----
                                           ; SOURCE LINE # 22
0000         ?C0002:
                                           ; SOURCE LINE # 23
0000 2000FD            JB      busy,?C0002
                                           ; SOURCE LINE # 24
0003 EF                MOV     A,R7
                                           ; SOURCE LINE # 25
0004 D29B              SETB    TB8
                                           ; SOURCE LINE # 27
0006 D200        R     SETB    busy
                                           ; SOURCE LINE # 28
0008 F599              MOV     SBUF,A
                                           ; SOURCE LINE # 29
000A 22                RET     
             ; FUNCTION _SendData (END)

             ; FUNCTION _SendString (BEGIN)
                                           ; SOURCE LINE # 30
0000 8B00        R     MOV     s,R3
0002 8A00        R     MOV     s+01H,R2
0004 8900        R     MOV     s+02H,R1
                                           ; SOURCE LINE # 31
0006         ?C0005:
                                           ; SOURCE LINE # 32
0006 AB00        R     MOV     R3,s
0008 AA00        R     MOV     R2,s+01H
000A A900        R     MOV     R1,s+02H
000C 120000      E     LCALL   ?C?CLDPTR
000F 6013              JZ      ?C0007
                                           ; SOURCE LINE # 33
                                           ; SOURCE LINE # 34
0011 0500        R     INC     s+02H
C51 COMPILER V9.59.0.0   UART                                                              06/08/2022 22:53:27 PAGE 3   

0013 E500        R     MOV     A,s+02H
0015 7002              JNZ     ?C0011
0017 0500        R     INC     s+01H
0019         ?C0011:
0019 14                DEC     A
001A F9                MOV     R1,A
001B 120000      E     LCALL   ?C?CLDPTR
001E FF                MOV     R7,A
001F 120000      R     LCALL   _SendData
                                           ; SOURCE LINE # 35
0022 80E2              SJMP    ?C0005
                                           ; SOURCE LINE # 36
0024         ?C0007:
0024 22                RET     
             ; FUNCTION _SendString (END)

             ; FUNCTION uart (BEGIN)
                                           ; SOURCE LINE # 38
                                           ; SOURCE LINE # 40
0000 309805            JNB     RI,?C0008
                                           ; SOURCE LINE # 41
                                           ; SOURCE LINE # 42
0003 C298              CLR     RI
                                           ; SOURCE LINE # 43
0005 859980            MOV     P0,SBUF
                                           ; SOURCE LINE # 44
0008         ?C0008:
                                           ; SOURCE LINE # 45
0008 309904            JNB     TI,?C0010
                                           ; SOURCE LINE # 46
                                           ; SOURCE LINE # 47
000B C299              CLR     TI
                                           ; SOURCE LINE # 48
000D C200        R     CLR     busy
                                           ; SOURCE LINE # 49
                                           ; SOURCE LINE # 50
000F         ?C0010:
000F 32                RETI    
             ; FUNCTION uart (END)

C51 COMPILER V9.59.0.0   UART                                                              06/08/2022 22:53:27 PAGE 4   

NAME                                    CLASS   MSPACE  TYPE    OFFSET  SIZE
====                                    =====   ======  ====    ======  ====


P0 . . . . . . . . . . . . . . . . . .  SFR      DATA   U_CHAR   0080H  1
P1 . . . . . . . . . . . . . . . . . .  SFR      DATA   U_CHAR   0090H  1
P2 . . . . . . . . . . . . . . . . . .  SFR      DATA   U_CHAR   00A0H  1
P3 . . . . . . . . . . . . . . . . . .  SFR      DATA   U_CHAR   00B0H  1
T0 . . . . . . . . . . . . . . . . . .  ABSBIT   -----  BIT      00B4H  1
AC . . . . . . . . . . . . . . . . . .  ABSBIT   -----  BIT      00D6H  1
T1 . . . . . . . . . . . . . . . . . .  ABSBIT   -----  BIT      00B5H  1
T2 . . . . . . . . . . . . . . . . . .  ABSBIT   -----  BIT      0090H  1
EA . . . . . . . . . . . . . . . . . .  ABSBIT   -----  BIT      00AFH  1
_SendString. . . . . . . . . . . . . .  PUBLIC   CODE   PROC     0000H  -----
  s. . . . . . . . . . . . . . . . . .  AUTO     DATA   PTR      0000H  3
_SendData. . . . . . . . . . . . . . .  PUBLIC   CODE   PROC     0000H  -----
  dat. . . . . . . . . . . . . . . . .  * REG *  DATA   U_CHAR   0007H  1
IE . . . . . . . . . . . . . . . . . .  SFR      DATA   U_CHAR   00A8H  1
EXF2 . . . . . . . . . . . . . . . . .  ABSBIT   -----  BIT      00CEH  1
RD . . . . . . . . . . . . . . . . . .  ABSBIT   -----  BIT      00B7H  1
ES . . . . . . . . . . . . . . . . . .  ABSBIT   -----  BIT      00ACH  1
IP . . . . . . . . . . . . . . . . . .  SFR      DATA   U_CHAR   00B8H  1
RI . . . . . . . . . . . . . . . . . .  ABSBIT   -----  BIT      0098H  1
INT0 . . . . . . . . . . . . . . . . .  ABSBIT   -----  BIT      00B2H  1
CY . . . . . . . . . . . . . . . . . .  ABSBIT   -----  BIT      00D7H  1
TI . . . . . . . . . . . . . . . . . .  ABSBIT   -----  BIT      0099H  1
INT1 . . . . . . . . . . . . . . . . .  ABSBIT   -----  BIT      00B3H  1
RCAP2H . . . . . . . . . . . . . . . .  SFR      DATA   U_CHAR   00CBH  1
PS . . . . . . . . . . . . . . . . . .  ABSBIT   -----  BIT      00BCH  1
SP . . . . . . . . . . . . . . . . . .  SFR      DATA   U_CHAR   0081H  1
T2EX . . . . . . . . . . . . . . . . .  ABSBIT   -----  BIT      0091H  1
OV . . . . . . . . . . . . . . . . . .  ABSBIT   -----  BIT      00D2H  1
RCAP2L . . . . . . . . . . . . . . . .  SFR      DATA   U_CHAR   00CAH  1
C_T2 . . . . . . . . . . . . . . . . .  ABSBIT   -----  BIT      00C9H  1
WR . . . . . . . . . . . . . . . . . .  ABSBIT   -----  BIT      00B6H  1
u8 . . . . . . . . . . . . . . . . . .  TYPEDEF  -----  U_CHAR   -----  1
RCLK . . . . . . . . . . . . . . . . .  ABSBIT   -----  BIT      00CDH  1
TCLK . . . . . . . . . . . . . . . . .  ABSBIT   -----  BIT      00CCH  1
SBUF . . . . . . . . . . . . . . . . .  SFR      DATA   U_CHAR   0099H  1
PCON . . . . . . . . . . . . . . . . .  SFR      DATA   U_CHAR   0087H  1
SCON . . . . . . . . . . . . . . . . .  SFR      DATA   U_CHAR   0098H  1
TMOD . . . . . . . . . . . . . . . . .  SFR      DATA   U_CHAR   0089H  1
TCON . . . . . . . . . . . . . . . . .  SFR      DATA   U_CHAR   0088H  1
uart . . . . . . . . . . . . . . . . .  PUBLIC   CODE   PROC     0000H  -----
IE0. . . . . . . . . . . . . . . . . .  ABSBIT   -----  BIT      0089H  1
IE1. . . . . . . . . . . . . . . . . .  ABSBIT   -----  BIT      008BH  1
B. . . . . . . . . . . . . . . . . . .  SFR      DATA   U_CHAR   00F0H  1
CP_RL2 . . . . . . . . . . . . . . . .  ABSBIT   -----  BIT      00C8H  1
busy . . . . . . . . . . . . . . . . .  PUBLIC   DATA   BIT      0000H  1
ACC. . . . . . . . . . . . . . . . . .  SFR      DATA   U_CHAR   00E0H  1
ET0. . . . . . . . . . . . . . . . . .  ABSBIT   -----  BIT      00A9H  1
ET1. . . . . . . . . . . . . . . . . .  ABSBIT   -----  BIT      00ABH  1
TF0. . . . . . . . . . . . . . . . . .  ABSBIT   -----  BIT      008DH  1
ET2. . . . . . . . . . . . . . . . . .  ABSBIT   -----  BIT      00ADH  1
TF1. . . . . . . . . . . . . . . . . .  ABSBIT   -----  BIT      008FH  1
TF2. . . . . . . . . . . . . . . . . .  ABSBIT   -----  BIT      00CFH  1
RB8. . . . . . . . . . . . . . . . . .  ABSBIT   -----  BIT      009AH  1
TH0. . . . . . . . . . . . . . . . . .  SFR      DATA   U_CHAR   008CH  1
EX0. . . . . . . . . . . . . . . . . .  ABSBIT   -----  BIT      00A8H  1
IT0. . . . . . . . . . . . . . . . . .  ABSBIT   -----  BIT      0088H  1
TH1. . . . . . . . . . . . . . . . . .  SFR      DATA   U_CHAR   008DH  1
C51 COMPILER V9.59.0.0   UART                                                              06/08/2022 22:53:27 PAGE 5   

NAME                                    CLASS   MSPACE  TYPE    OFFSET  SIZE
====                                    =====   ======  ====    ======  ====


TB8. . . . . . . . . . . . . . . . . .  ABSBIT   -----  BIT      009BH  1
EX1. . . . . . . . . . . . . . . . . .  ABSBIT   -----  BIT      00AAH  1
IT1. . . . . . . . . . . . . . . . . .  ABSBIT   -----  BIT      008AH  1
TH2. . . . . . . . . . . . . . . . . .  SFR      DATA   U_CHAR   00CDH  1
P. . . . . . . . . . . . . . . . . . .  ABSBIT   -----  BIT      00D0H  1
SM0. . . . . . . . . . . . . . . . . .  ABSBIT   -----  BIT      009FH  1
TL0. . . . . . . . . . . . . . . . . .  SFR      DATA   U_CHAR   008AH  1
SM1. . . . . . . . . . . . . . . . . .  ABSBIT   -----  BIT      009EH  1
TL1. . . . . . . . . . . . . . . . . .  SFR      DATA   U_CHAR   008BH  1
SM2. . . . . . . . . . . . . . . . . .  ABSBIT   -----  BIT      009DH  1
TL2. . . . . . . . . . . . . . . . . .  SFR      DATA   U_CHAR   00CCH  1
PT0. . . . . . . . . . . . . . . . . .  ABSBIT   -----  BIT      00B9H  1
_uart_init . . . . . . . . . . . . . .  PUBLIC   CODE   PROC     0000H  -----
  baud . . . . . . . . . . . . . . . .  * REG *  DATA   U_CHAR   0007H  1
PT1. . . . . . . . . . . . . . . . . .  ABSBIT   -----  BIT      00BBH  1
RS0. . . . . . . . . . . . . . . . . .  ABSBIT   -----  BIT      00D3H  1
PT2. . . . . . . . . . . . . . . . . .  ABSBIT   -----  BIT      00BDH  1
TR0. . . . . . . . . . . . . . . . . .  ABSBIT   -----  BIT      008CH  1
RS1. . . . . . . . . . . . . . . . . .  ABSBIT   -----  BIT      00D4H  1
TR1. . . . . . . . . . . . . . . . . .  ABSBIT   -----  BIT      008EH  1
TR2. . . . . . . . . . . . . . . . . .  ABSBIT   -----  BIT      00CAH  1
PX0. . . . . . . . . . . . . . . . . .  ABSBIT   -----  BIT      00B8H  1
PX1. . . . . . . . . . . . . . . . . .  ABSBIT   -----  BIT      00BAH  1
u16. . . . . . . . . . . . . . . . . .  TYPEDEF  -----  U_INT    -----  2
DPH. . . . . . . . . . . . . . . . . .  SFR      DATA   U_CHAR   0083H  1
DPL. . . . . . . . . . . . . . . . . .  SFR      DATA   U_CHAR   0082H  1
EXEN2. . . . . . . . . . . . . . . . .  ABSBIT   -----  BIT      00CBH  1
REN. . . . . . . . . . . . . . . . . .  ABSBIT   -----  BIT      009CH  1
T2CON. . . . . . . . . . . . . . . . .  SFR      DATA   U_CHAR   00C8H  1
RXD. . . . . . . . . . . . . . . . . .  ABSBIT   -----  BIT      00B0H  1
TXD. . . . . . . . . . . . . . . . . .  ABSBIT   -----  BIT      00B1H  1
F0 . . . . . . . . . . . . . . . . . .  ABSBIT   -----  BIT      00D5H  1
PSW. . . . . . . . . . . . . . . . . .  SFR      DATA   U_CHAR   00D0H  1


MODULE INFORMATION:   STATIC OVERLAYABLE
   CODE SIZE        =     87    ----
   CONSTANT SIZE    =   ----    ----
   XDATA SIZE       =   ----    ----
   PDATA SIZE       =   ----    ----
   DATA SIZE        =   ----       3
   IDATA SIZE       =   ----    ----
   BIT SIZE         =      1    ----
   EDATA SIZE       =   ----    ----
   HDATA SIZE       =   ----    ----
   XDATA CONST SIZE =   ----    ----
   FAR CONST SIZE   =   ----    ----
END OF MODULE INFORMATION.


C51 COMPILATION COMPLETE.  0 WARNING(S),  0 ERROR(S)
