:100000000203310203BD011E00011D0111083F065C
:100010005B4F666D7D077F6F777C395E797100007D
:1000200001020302043DE709F608DFFA8046E7090A
:10003000F208DFFA803E88828C83E709F0A3DFFABA
:100040008032E309F608DFFA8078E309F208DFFA84
:10005000807088828C83E309F0A3DFFA8064898250
:100060008A83E0A3F608DFFA805889828A83E0A3B6
:10007000F208DFFA804C80D280FA80C680D4806992
:1000800080F28033801080A680EA809A80A880DA8F
:1000900080E280CA803389828A83ECFAE493A3C821
:1000A000C582C8CCC583CCF0A3C8C582C8CCC583E3
:1000B000CCDFE9DEE7800D89828A83E493A3F6082A
:1000C000DFF9ECFAA9F0EDFB2289828A83ECFAE0F1
:1000D000A3C8C582C8CCC583CCF0A3C8C582C8CC90
:1000E000C583CCDFEADEE880DB89828A83E493A3E0
:1000F000F208DFF980CC88F0EF60010E4E60C38813
:10010000F0ED2402B4040050B9F582EB2402B404EB
:100110000050AF232345822390007673BB010689EC
:10012000828A83E0225002E722BBFE02E322898218
:100130008A83E49322BB010CE58229F582E5833AA8
:10014000F583E0225006E92582F8E622BBFE06E9A7
:100150002582F8E222E58229F582E5833AF583E4F7
:100160009322C0E0C0F0C083C082C0D075D000C070
:1001700000C001C002C003C004C005C006C00775AE
:10018000210075220075230075240075250030B20A
:10019000030202797522037523E820B21EE5234588
:1001A0002260187F017E0012044DE52315237002A2
:1001B0001522E523452270E202027920B2030202F1
:1001C000797522017523F430B21EE52345226018AB
:1001D0007F017E0012044DE523152370021522E5F0
:1001E00023452270E2020279752400C3E5249404B9
:1001F000748094804003020279752500C3E525943C
:100200000874809480506D75220275235820B21DA9
:10021000E523452260177F017E0012044DE523157A
:100220002370021522E523452270E2804C752200DE
:1002300075231430B2167F0A7E0012044D0521D3B7
:10024000E52194147480948040E9802D741925244C
:10025000F8C000E6C313D000F6C3E521940874800B
:100260009480400974192524F8E64480F67521002D
:100270000525808805240201EBD007D006D005D0E3
:1002800004D003D002D001D000D0D0D082D083D00F
:10029000F0D0E0328B298A2A892BE4F52CED14F575
:1002A0002DF52CC3E52C9408748094804003020340
:1002B00030E52CB40800504D9002BFF82828730296
:1002C00002D70202DB0202DF0202E30202E70202BD
:1002D000EF0202F70202FFD2A4800ED2A48012D253
:1002E000A48016D2A4801AC2A4D2A3D2A28016C21D
:1002F000A4D2A3C2A2800EC2A4C2A3D2A28006C26C
:10030000A4C2A3C2A2C3E52C952DFFE49400AB299F
:10031000AA2AA92B8F82F5831201352408F8E6F565
:10032000807F647E0012044DE4F580052C0202A358
:1003300022787FE4F6D8FD75812D0203780203FF51
:10034000E493A3F8E493A34003F68001F208DFF4FA
:100350008029E493A3F85407240CC8C333C4540F72
:100360004420C8834004F456800146F6DFE4800B45
:100370000102040810204080900006E47E01936092
:10038000BCA3FF543F30E509541FFEE493A3600172
:100390000ECF54C025E060A840B8E493A3FAE493DC
:1003A000A3F8E493A3C8C582C8CAC583CAF0A3C88A
:1003B000C582C8CAC583CADFE9DEE780BEC0E0C027
:1003C000F0C083C082C0D075D000C000C001C002A0
:1003D000C003C004C005C006C00720B2077F647E0A
:1003E0000012041FD007D006D005D004D003D002DD
:1003F000D001D000D0D0D082D083D0F0D0E03278FD
:10040000267C007D007BFF7A0079207E007F03122E
:1004100000F67B007A0079267D0612029480F3D3E1
:10042000EF9400EE940040147D6E7C00ED1D700191
:100430001CED4C70F7EF1F70E61E80E3223098052C
:10044000C298859980309904C299C20032EF1FACDE
:080450000670011E4C70F6223B
:00000001FF
