LX51 LINKER/LOCATER V4.66.93.0                                                          06/08/2022  22:53:28  PAGE 1


LX51 LINKER/LOCATER V4.66.93.0, INVOKED BY:
D:\KEIL5.31\C51\BIN\LX51.EXE .\BUILD\RELEASE\SRC\ADC.O, .\BUILD\RELEASE\SRC\AT24C02.O, .\BUILD\RELEASE\SRC\IIC.O, .\BUIL
>> D\RELEASE\SRC\IRED.O, .\BUILD\RELEASE\SRC\KEY.O, .\BUILD\RELEASE\SRC\MAIN.O, .\BUILD\RELEASE\SRC\PUBLIC.O, .\BUILD\RE
>> LEASE\SRC\SHUMAGUAN.O, .\BUILD\RELEASE\SRC\UART.O TO .\BUILD\RELEASE\WORK1 PRINT (.\build\Release\work1.map) REMOVEUN
>> USED


CPU MODE:     8051 MODE
MEMORY MODEL: SMALL


INPUT MODULES INCLUDED:
  .\BUILD\RELEASE\SRC\ADC.O (ADC)
         COMMENT TYPE 0: C51 V9.59.0.0
  .\BUILD\RELEASE\SRC\AT24C02.O (AT24C02)
         COMMENT TYPE 0: C51 V9.59.0.0
  .\BUILD\RELEASE\SRC\IIC.O (IIC)
         COMMENT TYPE 0: C51 V9.59.0.0
  .\BUILD\RELEASE\SRC\IRED.O (IRED)
         COMMENT TYPE 0: C51 V9.59.0.0
  .\BUILD\RELEASE\SRC\KEY.O (KEY)
         COMMENT TYPE 0: C51 V9.59.0.0
  .\BUILD\RELEASE\SRC\MAIN.O (MAIN)
         COMMENT TYPE 0: C51 V9.59.0.0
  .\BUILD\RELEASE\SRC\PUBLIC.O (PUBLIC)
         COMMENT TYPE 0: C51 V9.59.0.0
  .\BUILD\RELEASE\SRC\SHUMAGUAN.O (SHUMAGUAN)
         COMMENT TYPE 0: C51 V9.59.0.0
  .\BUILD\RELEASE\SRC\UART.O (UART)
         COMMENT TYPE 0: C51 V9.59.0.0
  D:\KEIL5.31\C51\LIB\C51S.LIB (?C_STARTUP)
         COMMENT TYPE 1: A51 / ASM51 Assembler
  D:\KEIL5.31\C51\LIB\C51S.LIB (?C?COPY)
         COMMENT TYPE 1: A51 / ASM51 Assembler
  D:\KEIL5.31\C51\LIB\C51S.LIB (?C?CLDPTR)
         COMMENT TYPE 1: A51 / ASM51 Assembler
  D:\KEIL5.31\C51\LIB\C51S.LIB (?C?CLDOPTR)
         COMMENT TYPE 1: A51 / ASM51 Assembler
  D:\KEIL5.31\C51\LIB\C51S.LIB (?C_INIT)
         COMMENT TYPE 1: A51 / ASM51 Assembler


ACTIVE MEMORY CLASSES OF MODULE:  .\BUILD\RELEASE\WORK1 (ADC)

BASE        START       END         USED      MEMORY CLASS
==========================================================
C:000000H   C:000000H   C:00FFFFH   000458H   CODE
I:000000H   I:000000H   I:00007FH   00002CH   DATA
C:000000H   C:000000H   C:00FFFFH   000003H   CONST
I:000020H.0 I:000020H.0 I:00002FH.7 000000H.1 BIT
I:000000H   I:000000H   I:0000FFH   000001H   IDATA


MEMORY MAP OF MODULE:  .\BUILD\RELEASE\WORK1 (ADC)


START     STOP      LENGTH    ALIGN  RELOC    MEMORY CLASS   SEGMENT NAME
=========================================================================

* * * * * * * * * * *   D A T A   M E M O R Y   * * * * * * * * * * * * *
000000H   000007H   000008H   ---    AT..     DATA           "REG BANK 0"
000008H   000018H   000011H   BYTE   UNIT     DATA           ?DT?SHUMAGUAN
000019H   00001CH   000004H   BYTE   UNIT     DATA           ?DT?IRED
00001DH   00001EH   000002H   BYTE   UNIT     DATA           ?DT?KEY
00001FH.0 00001FH.7 000001H.0 ---    ---      **GAP**
000020H.0 000020H.0 000000H.1 BIT    UNIT     BIT            ?BI?UART
LX51 LINKER/LOCATER V4.66.93.0                                                        06/08/2022  22:53:28  PAGE 2


000020H.1 000020H   000000H.7 ---    ---      **GAP**
000021H   00002DH   00000DH   BYTE   UNIT     DATA           _DATA_GROUP_
00002EH   00002EH   000001H   BYTE   UNIT     IDATA          ?STACK

* * * * * * * * * * *   C O D E   M E M O R Y   * * * * * * * * * * * * *
000000H   000002H   000003H   ---    OFFS..   CODE           ?CO??C_STARTUP?0
000003H   000005H   000003H   BYTE   OFFS..   CODE           ?KEY?00003
*** OVERLAP ***
000003H   000005H   000003H   BYTE   OFFS..   CODE           ?IRED?00003
000006H   00001FH   00001AH   BYTE   UNIT     CODE           ?C_INITSEG
000020H   000022H   000003H   BYTE   UNIT     CONST          ?CO?MAIN
000023H   000025H   000003H   BYTE   OFFS..   CODE           ?UART?00023
000026H   000161H   00013CH   BYTE   UNIT     CODE           ?C?LIB_CODE
000162H   000293H   000132H   BYTE   UNIT     CODE           ?PR?IRED?IRED
000294H   000330H   00009DH   BYTE   UNIT     CODE           ?PR?_SMG_DISPLAY?SHUMAGUAN
000331H   0003BCH   00008CH   BYTE   UNIT     CODE           ?C_C51STARTUP
0003BDH   0003FEH   000042H   BYTE   UNIT     CODE           ?PR?EXIT0?KEY
0003FFH   00041EH   000020H   BYTE   UNIT     CODE           ?PR?MAIN?MAIN
00041FH   00043CH   00001EH   BYTE   UNIT     CODE           ?PR?_DELAY_MS?PUBLIC
00043DH   00044CH   000010H   BYTE   UNIT     CODE           ?PR?UART?UART
00044DH   000457H   00000BH   BYTE   UNIT     CODE           ?PR?_DELAY_10US?PUBLIC

* * * * * * * * *   R E M O V E D     S E G M E N T S   * * * * * * * *
   *DEL*:           000028H   BYTE   UNIT     CODE           ?PR?_XPT2046_WIRTE_DATA?ADC
   *DEL*:           000028H   BYTE   UNIT     CODE           ?PR?XPT2046_READ_DATA?ADC
   *DEL*:           000025H   BYTE   UNIT     CODE           ?PR?_XPT2046_READ_ADC_VALUE?ADC
   *DEL*:           000029H   BYTE   UNIT     CODE           ?PR?_AT24C02_WRITE_ONE_BYTE?AT24C02
   *DEL*:           000002H   BYTE   UNIT     DATA           ?DT?_AT24C02_WRITE_ONE_BYTE?AT24C02
   *DEL*:           000030H   BYTE   UNIT     CODE           ?PR?_AT24C02_READ_ONE_BYTE?AT24C02
   *DEL*:           000002H   BYTE   UNIT     DATA           ?DT?_AT24C02_READ_ONE_BYTE?AT24C02
   *DEL*:           000024H   BYTE   UNIT     CODE           ?PR?IIC_START?IIC
   *DEL*:           00001BH   BYTE   UNIT     CODE           ?PR?IIC_STOP?IIC
   *DEL*:           000017H   BYTE   UNIT     CODE           ?PR?IIC_ACK?IIC
   *DEL*:           000017H   BYTE   UNIT     CODE           ?PR?IIC_NACK?IIC
   *DEL*:           000026H   BYTE   UNIT     CODE           ?PR?IIC_WAIT_ACK?IIC
   *DEL*:           000001H   BYTE   UNIT     DATA           ?DT?IIC_WAIT_ACK?IIC
   *DEL*:           00004AH   BYTE   UNIT     CODE           ?PR?_IIC_WRITE_BYTE?IIC
   *DEL*:           000002H   BYTE   UNIT     DATA           ?DT?_IIC_WRITE_BYTE?IIC
   *DEL*:           000044H   BYTE   UNIT     CODE           ?PR?_IIC_READ_BYTE?IIC
   *DEL*:           000003H   BYTE   UNIT     DATA           ?DT?_IIC_READ_BYTE?IIC
   *DEL*:           000009H   BYTE   UNIT     CODE           ?PR?IRED_INIT?IRED
   *DEL*:           0000FAH   BYTE   UNIT     CODE           ?PR?KEY_MATRIX_RANKS_SCAN?KEY
   *DEL*:           000001H   BYTE   UNIT     DATA           ?DT?KEY_MATRIX_RANKS_SCAN?KEY
   *DEL*:           00004CH   BYTE   UNIT     CODE           ?PR?_KEY_SCAN?KEY
   *DEL*:           000007H   BYTE   UNIT     CODE           ?PR?EXIT0_INIT?KEY
   *DEL*:           000014H   BYTE   UNIT     CODE           ?PR?_UART_INIT?UART
   *DEL*:           00000BH   BYTE   UNIT     CODE           ?PR?_SENDDATA?UART
   *DEL*:           000025H   BYTE   UNIT     CODE           ?PR?_SENDSTRING?UART
   *DEL*:           000003H   BYTE   UNIT     DATA           ?DT?_SENDSTRING?UART



OVERLAY MAP OF MODULE:   .\BUILD\RELEASE\WORK1 (ADC)


FUNCTION/MODULE                       BIT_GROUP   DATA_GROUP 
--> CALLED FUNCTION/MODULE           START  STOP  START  STOP
=============================================================
IRED/IRED                            ----- -----  0021H 0025H
  +--> _DELAY_10US/PUBLIC

_DELAY_10US/PUBLIC                   ----- -----  ----- -----

*** NEW ROOT ***********************

LX51 LINKER/LOCATER V4.66.93.0                                                        06/08/2022  22:53:28  PAGE 3


EXIT0/KEY                            ----- -----  ----- -----
  +--> _DELAY_MS/PUBLIC

_DELAY_MS/PUBLIC                     ----- -----  ----- -----

*** NEW ROOT ***********************

UART/UART                            ----- -----  ----- -----

*** NEW ROOT ***********************

?C_C51STARTUP                        ----- -----  ----- -----
  +--> MAIN/MAIN
  +--> ?C_INITSEG

MAIN/MAIN                            ----- -----  0026H 0028H
  +--> _SMG_DISPLAY/SHUMAGUAN

_SMG_DISPLAY/SHUMAGUAN               ----- -----  0029H 002DH
  +--> _DELAY_10US/PUBLIC

?C_INITSEG                           ----- -----  ----- -----



PUBLIC SYMBOLS OF MODULE:  .\BUILD\RELEASE\WORK1 (ADC)


      VALUE       CLASS    TYPE      PUBLIC SYMBOL NAME
      =================================================
      01000135H   CODE     ---       ?C?CLDOPTR
      0100011CH   CODE     ---       ?C?CLDPTR
      00000000H   NUMBER   ---       ?C?CODESEG
      010000F6H   CODE     ---       ?C?COPY
      00000000H   NUMBER   ---       ?C?XDATASEG
      01000378H   CODE     ---       ?C_START
      01000000H   CODE     ---       ?C_STARTUP
*DEL*:00000000H   CODE     ---       _at24c02_read_one_byte
*DEL*:00000000H   CODE     ---       _at24c02_write_one_byte
      0100044DH   CODE     ---       _delay_10us
      0100041FH   CODE     ---       _delay_ms
*DEL*:00000000H   CODE     ---       _iic_read_byte
*DEL*:00000000H   CODE     ---       _iic_write_byte
*DEL*:00000000H   CODE     ---       _key_scan
*DEL*:00000000H   CODE     ---       _SendData
*DEL*:00000000H   CODE     ---       _SendString
      01000294H   CODE     ---       _smg_display
*DEL*:00000000H   CODE     ---       _uart_init
*DEL*:00000000H   CODE     ---       _xpt2046_read_adc_value
*DEL*:00000000H   CODE     ---       _xpt2046_wirte_data
      00000020H.0 BIT      BIT       busy
      010003BDH   CODE     ---       exit0
*DEL*:00000000H   CODE     ---       exit0_init
      00000019H   DATA     ---       gired_data
      00000008H   DATA     ---       gsmg_code
*DEL*:00000000H   CODE     ---       iic_ack
*DEL*:00000000H   CODE     ---       iic_nack
*DEL*:00000000H   CODE     ---       iic_start
*DEL*:00000000H   CODE     ---       iic_stop
*DEL*:00000000H   CODE     ---       iic_wait_ack
      01000162H   CODE     ---       ired
*DEL*:00000000H   CODE     ---       ired_init
*DEL*:00000000H   CODE     ---       key_matrix_ranks_scan
      0000001EH   DATA     BYTE      key_value
      010003FFH   CODE     ---       main
LX51 LINKER/LOCATER V4.66.93.0                                                        06/08/2022  22:53:28  PAGE 4


      0100043DH   CODE     ---       uart
*DEL*:00000000H   CODE     ---       xpt2046_read_data



SYMBOL TABLE OF MODULE:  .\BUILD\RELEASE\WORK1 (ADC)

      VALUE       REP       CLASS    TYPE      SYMBOL NAME
      ====================================================
      ---         MODULE    ---      ---       ADC
      00000006H   SYMBOL    DATA     VOID      i
      00000005H   SYMBOL    DATA     VOID      i
      00000006H   SYMBOL    DATA     VOID      dat
      00000007H   SYMBOL    DATA     VOID      i
      00000004H   SYMBOL    DATA     VOID      adc_value

      ---         MODULE    ---      ---       AT24C02

      ---         MODULE    ---      ---       IIC

      ---         MODULE    ---      ---       IRED
      00000019H   PUBLIC    DATA     ---       gired_data
      01000162H   PUBLIC    CODE     ---       ired

      01000162H   BLOCK     CODE     ---       LVL=0
      0100017FH   BLOCK     CODE     NEAR LAB  LVL=1
      00000021H   SYMBOL    DATA     VOID      ired_high_time
      00000022H   SYMBOL    DATA     VOID      time_cnt
      00000024H   SYMBOL    DATA     VOID      i
      00000025H   SYMBOL    DATA     VOID      j
      ---         BLOCKEND  ---      ---       LVL=1
      ---         BLOCKEND  ---      ---       LVL=0

      ---         MODULE    ---      ---       KEY
      0000001EH   PUBLIC    DATA     BYTE      key_value
      010003BDH   PUBLIC    CODE     ---       exit0
      0000001DH   SYMBOL    DATA     VOID      key

      010003BDH   BLOCK     CODE     ---       LVL=0
      ---         BLOCKEND  ---      ---       LVL=0

      ---         MODULE    ---      ---       MAIN
      010003FFH   PUBLIC    CODE     ---       main

      010003FFH   BLOCK     CODE     ---       LVL=0
      010003FFH   BLOCK     CODE     NEAR LAB  LVL=1
      00000026H   SYMBOL    DATA     VOID      save_buf
      ---         BLOCKEND  ---      ---       LVL=1
      ---         BLOCKEND  ---      ---       LVL=0

      ---         MODULE    ---      ---       PUBLIC
      0100041FH   PUBLIC    CODE     ---       _delay_ms
      0100044DH   PUBLIC    CODE     ---       _delay_10us

      0100044DH   BLOCK     CODE     ---       LVL=0
      ---         BLOCKEND  ---      ---       LVL=0

      0100041FH   BLOCK     CODE     ---       LVL=0
      0100041FH   BLOCK     CODE     NEAR LAB  LVL=1
      00000006H   SYMBOL    DATA     VOID      i
      00000004H   SYMBOL    DATA     VOID      j
      ---         BLOCKEND  ---      ---       LVL=1
      ---         BLOCKEND  ---      ---       LVL=0

      ---         MODULE    ---      ---       SHUMAGUAN
LX51 LINKER/LOCATER V4.66.93.0                                                        06/08/2022  22:53:28  PAGE 5


      00000008H   PUBLIC    DATA     ---       gsmg_code
      01000294H   PUBLIC    CODE     ---       _smg_display

      01000294H   BLOCK     CODE     ---       LVL=0
      0100029AH   BLOCK     CODE     NEAR LAB  LVL=1
      0000002CH   SYMBOL    DATA     VOID      i
      0000002DH   SYMBOL    DATA     VOID      pos_temp
      ---         BLOCKEND  ---      ---       LVL=1
      ---         BLOCKEND  ---      ---       LVL=0

      ---         MODULE    ---      ---       UART
      00000020H.0 PUBLIC    BIT      BIT       busy
      0100043DH   PUBLIC    CODE     ---       uart

      0100043DH   BLOCK     CODE     ---       LVL=0
      ---         BLOCKEND  ---      ---       LVL=0

      ---         MODULE    ---      ---       ?C_STARTUP
      01000000H   PUBLIC    CODE     ---       ?C_STARTUP

      ---         MODULE    ---      ---       ?C?COPY
      010000F6H   PUBLIC    CODE     ---       ?C?COPY

      ---         MODULE    ---      ---       ?C?CLDPTR
      0100011CH   PUBLIC    CODE     ---       ?C?CLDPTR

      ---         MODULE    ---      ---       ?C?CLDOPTR
      01000135H   PUBLIC    CODE     ---       ?C?CLDOPTR

      ---         MODULE    ---      ---       ?C_INIT
      01000378H   PUBLIC    CODE     ---       ?C_START



*** WARNING L30: MEMORY SPACE OVERLAP
    SEG:     ?IRED?00003
    FROM:    C:000003H   
    TO:      C:000006H   

Program Size: data=45.1 xdata=0 const=3 code=1112
LX51 RUN COMPLETE.  1 WARNING(S),  0 ERROR(S)
